:020000040000FA
:10000000A0020010690100007101000073010000EE
:100010007501000077010000790100000000000078
:100020000000000000000000000000007B01000054
:100030007D010000000000007F0100008101000040
:100040008301000095070000830100008301000088
:100050008301000083010000830100008301000090
:100060008301000083010000830100008301000080
:100070008301000083010000830100008301000070
:100080008301000083010000830100008301000060
:100090008301000083010000830100008301000050
:1000A0008301000083010000830100008301000040
:1000B0008301000083010000830100008301000030
:1000C00083010000830100008301000000F002F8BA
:1000D00000F03AF80AA090E8000C82448344AAF1A8
:1000E0000107DA4501D100F02FF8AFF2090EBAE8A6
:1000F0000F0013F0010F18BFFB1A43F0010318475C
:100100001C0700003C070000103A24BF78C878C1E3
:10011000FAD8520724BF30C830C144BF04680C600D
:10012000704700000023002400250026103A28BF55
:1001300078C1FBD8520728BF30C148BF0B60704759
:100140001FB51FBD10B510BD00F0A6F81146FFF792
:10015000F7FF00F05DFA00F0C4F803B4FFF7F2FF18
:1001600003BC00F053FB00000948804709480047E2
:10017000FEE7FEE7FEE7FEE7FEE7FEE7FEE7FEE757
:10018000FEE7FEE704480549034A054B70470000B7
:1001900099040000CD000000A0000010A002001093
:1001A000A000001053EA020C00F069802DE9F04B2A
:1001B0004FF00006002B1FBFB3FA83F503FA05F4D6
:1001C00024FA05F65E4012BF1643B2FA82F502FA2F
:1001D00005F4C5F120051EBF22FA05FC44EA0C0413
:1001E000203556EA044C4FEA144418BF641C4FF003
:1001F00000084FF00009904271EB030C39D300293D
:1002000019BFB1FA81F701FA07F6B0FA80F700FAE0
:1002100007F6C7F120071EBF20FA07FC46EA0C06C6
:100220002037B6FBF4FCA7EB0507103F07F01F0BC8
:10023000CBF120060CFA0BFB2CFA06F644BFB346B2
:100240000026202FA4BF5E464FF0000B5BEA060C91
:1002500008BF4FF0010B19EB0B09ABFB027C48EB1D
:100260000608C01B06FB02CC0BFB03CC71EB0C0198
:10027000C1E70B46024641464846BDE8F08B13B540
:100280004FF000004FF00001AFF30080BDE81C40CC
:100290007047704770477047754600F02BF8AE46C0
:1002A00005006946534620F00700854618B020B582
:1002B000FFF768FFBDE820404FF000064FF0000751
:1002C0004FF000084FF0000B21F00701AC46ACE8FE
:1002D000C009ACE8C009ACE8C009ACE8C0098D466B
:1002E000704710B50446AFF300802046BDE81040CB
:1002F000FFF733BF004870473C000010FFFFFFFFCF
:100300002DE9F0477F480068C0F3016003287DD1E4
:100310007C488430006800F0030030B1012830D000
:10032000022859D003282BD100E000BF754800688F
:10033000C0F30740441C022172488838D0F8880076
:10034000C0F30E00401CA1FB00016F4B4FF0000CEE
:10035000A0FB037901FB039100FB0C1122466346CD
:100360003846FFF71FFF054666487C300068C0B27C
:10037000441C224600232846FFF714FF6349086007
:1003800056E060480068C0F30740441C02215D4805
:100390008838D0F88800C0F30E00401CA1FB001084
:1003A0005B4A4FF0000CA1FB027900FB029001FBBD
:1003B0000C01224663463846FFF7F4FE05465148D5
:1003C0007C300068C0B2441C224600232846FFF758
:1003D000E9FE4E4908602BE04A480068C0F3074038
:1003E000441C022147488838D0F88800C0F30E002A
:1003F000401CA1FB00124FF400400023A1FB007938
:1004000002FB009001FB0301224600E011E03846A8
:10041000FFF7C8FE05463B487C300068C0B2441C6C
:10042000224600232846FFF7BDFE3849086000BF7A
:1004300030E034488430006800F0030030B1012817
:1004400010D0022819D0032823D100E000BF2D4886
:100450007C300068C0B2401C2B49B1FBF0F02B4946
:10046000086016E027487C300068C0B2401C28496C
:10047000B1FBF0F0254908600BE022487C300068B1
:10048000C0B2401C4FF40041B1FBF0F01F490860BE
:1004900000BF00BFBDE8F08720201E490860194852
:1004A0008838D0F8A00100F0200030B100BF194812
:1004B000006800F040000028F9D0032011497C3189
:1004C000086001200F498839C1F8A80111490C3191
:1004D00008600C49843108600020091F08600E483C
:1004E00008493C31086040F2011006498839C1F8DA
:1004F000C8010846006820F4704040F4804008605D
:100500007047000088C00F4000093D000000001047
:10051000001BB700A0C10F40DE872804AA4800686E
:10052000012808D1A9480068A94908606FF0F06067
:10053000A849486325E0A4480068022808D1A648D5
:100540000068A34908606FF0E060A249486318E0C2
:100550009D480068032808D1A04800689C490860AD
:100560006FF0D0609B4948630BE09748006804280F
:1005700007D19B480068964908606FF0C0609549B4
:1005800048639348007800F00F009149086095484F
:100590000968405C944908600846006800010860EA
:1005A000084600688B49486100209049086004E0D3
:1005B0008E480068401C8D4908608C480068B0F582
:1005C000FA7FF5D34FF47F608249C861704788484D
:1005D000006840F002008649C439C1F8C4002020F8
:1005E0004FF04021486040F6B83088613020C86341
:1005F000032048610120012181404209920002F15B
:10060000E022C2F8001100BF4FF04021486070475F
:10061000FFF742FFFFF774FE76480068764908400E
:10062000744908600846C06820F47F10C8606948B3
:10063000006840F47F60674908600846006A40F03F
:10064000F06008626B48006920F0030069490861A6
:100650006048006C20F00F005E49086499E0FFF7E5
:10066000B6FF00BF654800780028FBD00020634932
:1006700008706348006800283ED153480068401E57
:10068000514908600846006808B9042008605D48C0
:100690000078FF282ED100205A4908704B48006886
:1006A000401E4A49086008460068401C10BB0920EB
:1006B000086049480068401E4749086008460068CD
:1006C000401CB8B90920086044480068401E4349EE
:1006D000086008460068401C60B90920086040486E
:1006E0000068401E3E49086008460068401C08B982
:1006F00009200860FFF712FF4148006800283FD03A
:1007000031480068401C30490860084600680528E8
:1007100001D1002008603B480078FF282ED100203E
:100720003849087029480068401C28490860084674
:1007300000680A2822D10020086027480068401C71
:1007400025490860084600680A2817D1002008607B
:1007500022480068401C21490860084600680A28B1
:100760000CD1002008601E480068401C1C4908602D
:10077000084600680A2801D100200860FFF7CEFE75
:100780001448406D1E4908600846007800F00100DA
:10079000086064E7FF20194908701B480068B0F53D
:1007A0007A7F06D1FF20174908700020164908609B
:1007B00004E015480068401C1349086001204FF010
:1007C000402108607047000018000010040000106D
:1007D0001C00001000C00920080000100C000010D0
:1007E00010000010200000102C000010300000103D
:1007F000C4C00F4000C00240FF0000FF2A000010EC
:10080000380000102B0000101400001001491820BF
:10081000ABBEFEE726000200704700003C08000067
:10082000000000103C0000000801000078080000F3
:100830003C0000106402000024010000C0C62D002E
:1008400000000000000000000000000000000000A8
:100850000000000000000000000000003F065B4FA9
:10086000666D7D077F6F0000000000000000000043
:08087000000000000000000080
:04000005000001698D
:00000001FF
