:020000040000FA
:10000000700200106901000071010000730100001E
:100010007501000077010000790100000000000078
:100020000000000000000000000000007B01000054
:100030007D010000000000007F0100008101000040
:1000400083010000830100008301000083010000A0
:100050008301000083010000830100008301000090
:100060008301000083010000830100008301000080
:100070008301000083010000830100008301000070
:100080008301000083010000830100008301000060
:100090008301000083010000830100008301000050
:1000A0008301000083010000830100008301000040
:1000B0008301000083010000830100008301000030
:1000C00083010000830100008301000000F002F8BA
:1000D00000F03AF80AA090E8000C82448344AAF1A8
:1000E0000107DA4501D100F02FF8AFF2090EBAE8A6
:1000F0000F0013F0010F18BFFB1A43F0010318475C
:100100000C0500002C050000103A24BF78C878C107
:10011000FAD8520724BF30C830C144BF04680C600D
:10012000704700000023002400250026103A28BF55
:1001300078C1FBD8520728BF30C148BF0B60704759
:100140001FB51FBD10B510BD00F09BF81146FFF79D
:10015000F7FF00F027F800F0B9F803B4FFF7F2FF5B
:1001600003BC00F0C1F80000094880470948004777
:10017000FEE7FEE7FEE7FEE7FEE7FEE7FEE7FEE757
:10018000FEE7FEE704480549034A054B70470000B7
:1001900099040000CD0000007000001070020010F3
:1001A0007000001000F078F900F0AAF82D480068FF
:1001B0002D4908402B4908602C48006840F47F60B6
:1001C0002A4908600846006C0020086449E0274876
:1001D000406D274908600846008800F48050086098
:1001E00017E024480068214948610020224908603E
:1001F00004E021480068401C1F4908601E48006850
:100200004CF250318842F4D31A4800681030194932
:1002100008601748006820B916480068B0F57F6F7D
:10022000DFD117E0134800681049486100201249E7
:10023000086004E010480068401C0F4908600E4840
:1002400000684CF250318842F4D30A4800681038F4
:10025000084908600648006818B106480068102878
:10026000E0D1B4E700C00240FF0000FF00C0092059
:10027000040000100C0000100800001070477047C8
:100280007047754600F02CF8AE46050069465346A7
:1002900020F00700854618B020B5FFF773FFBDE8D2
:1002A00020404FF000064FF000074FF000084FF0DD
:1002B000000B21F00701AC46ACE8C009ACE8C0096E
:1002C000ACE8C009ACE8C0098D46704710B50446DB
:1002D000AFF300802046BDE81040FFF73EBF0000AE
:1002E000004870471000001001491820ABBEFEE71F
:1002F000260002007047000000000000FFFFFFFF23
:100300002DE9F0477F480068C0F3016003287DD1E4
:100310007C488430006800F0030030B1012830D000
:10032000022859D003282BD100E000BF754800688F
:10033000C0F30740441C022172488838D0F8880076
:10034000C0F30E00401CA1FB00016F4B4FF0000CEE
:10035000A0FB037901FB039100FB0C1122466346CD
:10036000384600F0DBF8054666487C300068C0B2CD
:10037000441C22460023284600F0D0F86349086058
:1003800056E060480068C0F30740441C02215D4805
:100390008838D0F88800C0F30E00401CA1FB001084
:1003A0005B4A4FF0000CA1FB027900FB029001FBBD
:1003B0000C0122466346384600F0B0F80546514825
:1003C0007C300068C0B2441C22460023284600F05E
:1003D000A5F84E4908602BE04A480068C0F3074082
:1003E000441C022147488838D0F88800C0F30E002A
:1003F000401CA1FB00124FF400400023A1FB007938
:1004000002FB009001FB0301224600E011E03846A8
:1004100000F084F805463B487C300068C0B2441CBC
:1004200022460023284600F079F83849086000BFCA
:1004300030E034488430006800F0030030B1012817
:1004400010D0022819D0032823D100E000BF2D4886
:100450007C300068C0B2401C2B49B1FBF0F02B4946
:10046000086016E027487C300068C0B2401C28496C
:10047000B1FBF0F0254908600BE022487C300068B1
:10048000C0B2401C4FF40041B1FBF0F01F490860BE
:1004900000BF00BFBDE8F08720201E490860194852
:1004A0008838D0F8A00100F0200030B100BF194812
:1004B000006800F040000028F9D0032011497C3189
:1004C000086001200F498839C1F8A80111490C3191
:1004D00008600C49843108600020091F08600E483C
:1004E00008493C31086040F2011006498839C1F8DA
:1004F000C8010846006820F4704040F4804008605D
:100500007047000088C00F4000093D000000001047
:10051000001BB700A0C10F40DE87280453EA020C7D
:1005200000F069802DE9F04B4FF00006002B1FBF53
:10053000B3FA83F503FA05F424FA05F65E4012BF18
:100540001643B2FA82F502FA05F4C5F120051EBF82
:1005500022FA05FC44EA0C04203556EA044C4FEA22
:10056000144418BF641C4FF000084FF0000990427B
:1005700071EB030C39D3002919BFB1FA81F701FAE5
:1005800007F6B0FA80F700FA07F6C7F120071EBF9A
:1005900020FA07FC46EA0C062037B6FBF4FCA7EB72
:1005A0000507103F07F01F0BCBF120060CFA0BFBE1
:1005B0002CFA06F644BFB3460026202FA4BF5E46A1
:1005C0004FF0000B5BEA060C08BF4FF0010B19EB74
:1005D0000B09ABFB027C48EB0608C01B06FB02CCF8
:1005E0000BFB03CC71EB0C01C1E70B460246414605
:1005F0004846BDE8F08B13B54FF000004FF0000106
:10060000AFF30080BDE81C40704700002C060000DE
:100610000000001010000000080100003C0600006F
:10062000100000106002000024010000C0C62D0070
:0C063000000000000000000000000000BE
:04000005000001698D
:00000001FF
