:020000040000FA
:10000000700200106901000071010000730100001E
:100010007501000077010000790100000000000078
:100020000000000000000000000000007B01000054
:100030007D010000000000007F0100008101000040
:1000400083010000830100008301000083010000A0
:100050008301000083010000830100008301000090
:100060008301000083010000830100008301000080
:100070008301000083010000830100008301000070
:100080008301000083010000830100008301000060
:100090008301000083010000830100008301000050
:1000A0008301000083010000830100008301000040
:1000B0008301000083010000830100008301000030
:1000C00083010000830100008301000000F002F8BA
:1000D00000F03AF80AA090E8000C82448344AAF1A8
:1000E0000107DA4501D100F02FF8AFF2090EBAE8A6
:1000F0000F0013F0010F18BFFB1A43F0010318475C
:100100002405000044050000103A24BF78C878C1D7
:10011000FAD8520724BF30C830C144BF04680C600D
:10012000704700000023002400250026103A28BF55
:1001300078C1FBD8520728BF30C148BF0B60704759
:100140001FB51FBD10B510BD00F09DF81146FFF79B
:10015000F7FF00F027F800F0BBF803B4FFF7F2FF59
:1001600003BC00F0BFF80000094880470948004779
:10017000FEE7FEE7FEE7FEE7FEE7FEE7FEE7FEE757
:10018000FEE7FEE704480549034A054B70470000B7
:10019000A9040000CD0000007000001070020010E3
:1001A0007000001000F080F900F0AAF82E480068F6
:1001B0002E4908402C4908602D48006840F47F60B3
:1001C0002B4908604FE010202A49086001202A4985
:1001D00008601CE0274800682549886100202749FD
:1001E000086004E025480068401C24490860234852
:1001F000006841F288318842F4D31E48006840000C
:100200001C4908601C480068401C1B4908601A48CB
:1002100000680928DED3102016490860012016491D
:1002200008601CE0134800681149C86100201349A8
:10023000086004E011480068401C104908600F483D
:10024000006841F288318842F4D30A4800684000CF
:100250000849086008480068401C074908600648CB
:1002600000680928DED3AEE700C00240FF0000FFAF
:1002700000C0092000000010040000100800001059
:10028000704770477047754600F028F8AE46050085
:100290006946534620F00700854618B020B5FFF7A1
:1002A00071FFBDE820404FF000064FF000074FF00F
:1002B00000084FF0000B21F00701AC46ACE8C00984
:1002C000ACE8C009ACE8C009ACE8C0098D4670478D
:1002D0000446AFF300802046FFF73FFF0048704719
:1002E0001000001001491820ABBEFEE726000200F6
:1002F000704700000000000000000000FFFFFFFF4B
:100300002DE9F04780480068C0F3016003287CD1E4
:100310007E48006810F0030006D0012833D0022880
:100320005FD003282ED100E000BF77480068C0F3FB
:10033000074000F101044FF002017548D0F8880031
:10034000C0F30E0000F10100A1FB0001714B4FF062
:10035000000CA0FB037901FB039100FB0C1122466A
:100360006346384600F0E6F805466B480068C0B2C0
:1003700000F1010422464FF00003284600F0DAF8AD
:10038000664908605DE060480068C0F3074000F11E
:1003900001044FF002015E48D0F88800C0F30E005F
:1003A00000F10100A1FB00105D4A4FF0000CA1FB21
:1003B000027900FB029001FB0C012246634638469D
:1003C00000F0B8F8054654480068C0B200F10104D6
:1003D00022464FF00003284600F0ACF84F49086071
:1003E0002FE049480068C0F3074000F101044FF0D6
:1003F00002014748D0F88800C0F30E0000F1010068
:10040000A1FB00124FF4004000E01BE04FF000039E
:10041000A1FB007902FB009001FB03012246384654
:1004200000F088F805463C480068C0B200F10104BD
:1004300022464FF00003284600F07CF83749086058
:1004400000BF2FE03148006810F0030006D00128FB
:1004500010D0022819D0032823D100E000BF2E4875
:100460000068C0B200F101002A49B1FBF0F02B494D
:10047000086016E028480068C0B200F10100284971
:10048000B1FBF0F0254908600BE023480068C0B2DA
:1004900000F101004FF40041B1FBF0F01F4908608A
:1004A00000BF00BFBDE8F08720201E490860184843
:1004B000D0F8A00110F0200F05D000BF1948006847
:1004C00010F0400FFAD00320134908604FF00100EC
:1004D0000F49C1F8A801144908600C4908604FF0A1
:1004E0000000A1F10401086010481149086040F2C1
:1004F00001100749C1F8C8010846006820F470409F
:1005000040F480400860704788C00F400CC10F4025
:1005100000C00F4000093D0004C10F400C00001056
:10052000001BB700A0C10F40ACC10F40DE872804FC
:10053000C4C00F4053EA020C00F069802DE9F04B73
:100540004FF00006002B1FBFB3FA83F503FA05F442
:1005500024FA05F65E4012BF1643B2FA82F502FA9B
:1005600005F4C5F120051EBF22FA05FC44EA0C047F
:10057000203556EA044C4FEA144418BF641C4FF06F
:1005800000084FF00009904271EB030C39D30029A9
:1005900019BFB1FA81F701FA07F6B0FA80F700FA4D
:1005A00007F6C7F120071EBF20FA07FC46EA0C0633
:1005B0002037B6FBF4FCA7EB0507103F07F01F0B35
:1005C000CBF120060CFA0BFB2CFA06F644BFB3461F
:1005D0000026202FA4BF5E464FF0000B5BEA060CFE
:1005E00008BF4FF0010B19EB0B09ABFB027C48EB8A
:1005F0000608C01B06FB02CC0BFB03CC71EB0C0105
:10060000C1E70B46024641464846BDE8F08B13B5AC
:100610004FF000004FF00001AFF30080BDE81C4038
:1006200070470000440600000000001010000000A9
:1006300008010000540600001000001060020000D5
:100640002401000010000000000000000000000075
:04065000C0C62D00F3
:04000005000000CD2A
:00000001FF
