:020000040000FA
:100000008802001069010000710100007301000006
:100010007501000077010000790100000000000078
:100020000000000000000000000000007B01000054
:100030007D010000000000007F0100008101000040
:10004000830100003D0600008301000083010000E1
:100050008301000083010000830100008301000090
:100060008301000083010000830100008301000080
:100070008301000083010000830100008301000070
:100080008301000083010000830100008301000060
:100090008301000083010000830100008301000050
:1000A0008301000083010000830100008301000040
:1000B0008301000083010000830100008301000030
:1000C00083010000830100008301000000F002F8BA
:1000D00000F03AF80AA090E8000C82448344AAF1A8
:1000E0000107DA4501D100F02FF8AFF2090EBAE8A6
:1000F0000F0013F0010F18BFFB1A43F0010318475C
:10010000EC0500000C060000103A24BF78C878C146
:10011000FAD8520724BF30C830C144BF04680C600D
:10012000704700000023002400250026103A28BF55
:1001300078C1FBD8520728BF30C148BF0B60704759
:100140001FB51FBD10B510BD00F0A6F81146FFF792
:10015000F7FF00F053FA00F0C4F803B4FFF7F2FF22
:1001600003BC00F0BBFA000009488047094800477B
:10017000FEE7FEE7FEE7FEE7FEE7FEE7FEE7FEE757
:10018000FEE7FEE704480549034A054B70470000B7
:1001900099040000CD0000008800001088020010C3
:1001A0008800001053EA020C00F069802DE9F04B42
:1001B0004FF00006002B1FBFB3FA83F503FA05F4D6
:1001C00024FA05F65E4012BF1643B2FA82F502FA2F
:1001D00005F4C5F120051EBF22FA05FC44EA0C0413
:1001E000203556EA044C4FEA144418BF641C4FF003
:1001F00000084FF00009904271EB030C39D300293D
:1002000019BFB1FA81F701FA07F6B0FA80F700FAE0
:1002100007F6C7F120071EBF20FA07FC46EA0C06C6
:100220002037B6FBF4FCA7EB0507103F07F01F0BC8
:10023000CBF120060CFA0BFB2CFA06F644BFB346B2
:100240000026202FA4BF5E464FF0000B5BEA060C91
:1002500008BF4FF0010B19EB0B09ABFB027C48EB1D
:100260000608C01B06FB02CC0BFB03CC71EB0C0198
:10027000C1E70B46024641464846BDE8F08B13B540
:100280004FF000004FF00001AFF30080BDE81C40CC
:100290007047704770477047754600F02BF8AE46C0
:1002A00005006946534620F00700854618B020B582
:1002B000FFF768FFBDE820404FF000064FF0000751
:1002C0004FF000084FF0000B21F00701AC46ACE8FE
:1002D000C009ACE8C009ACE8C009ACE8C0098D466B
:1002E000704710B50446AFF300802046BDE81040CB
:1002F000FFF733BF0048704728000010FFFFFFFFE3
:100300002DE9F0477F480068C0F3016003287DD1E4
:100310007C488430006800F0030030B1012830D000
:10032000022859D003282BD100E000BF754800688F
:10033000C0F30740441C022172488838D0F8880076
:10034000C0F30E00401CA1FB00016F4B4FF0000CEE
:10035000A0FB037901FB039100FB0C1122466346CD
:100360003846FFF71FFF054666487C300068C0B27C
:10037000441C224600232846FFF714FF6349086007
:1003800056E060480068C0F30740441C02215D4805
:100390008838D0F88800C0F30E00401CA1FB001084
:1003A0005B4A4FF0000CA1FB027900FB029001FBBD
:1003B0000C01224663463846FFF7F4FE05465148D5
:1003C0007C300068C0B2441C224600232846FFF758
:1003D000E9FE4E4908602BE04A480068C0F3074038
:1003E000441C022147488838D0F88800C0F30E002A
:1003F000401CA1FB00124FF400400023A1FB007938
:1004000002FB009001FB0301224600E011E03846A8
:10041000FFF7C8FE05463B487C300068C0B2441C6C
:10042000224600232846FFF7BDFE3849086000BF7A
:1004300030E034488430006800F0030030B1012817
:1004400010D0022819D0032823D100E000BF2D4886
:100450007C300068C0B2401C2B49B1FBF0F02B4946
:10046000086016E027487C300068C0B2401C28496C
:10047000B1FBF0F0254908600BE022487C300068B1
:10048000C0B2401C4FF40041B1FBF0F01F490860BE
:1004900000BF00BFBDE8F08720201E490860194852
:1004A0008838D0F8A00100F0200030B100BF194812
:1004B000006800F040000028F9D0032011497C3189
:1004C000086001200F498839C1F8A80111490C3191
:1004D00008600C49843108600020091F08600E483C
:1004E00008493C31086040F2011006498839C1F8DA
:1004F000C8010846006820F4704040F4804008605D
:100500007047000088C00F4000093D000000001047
:10051000001BB700A0C10F40DE87280464480068B4
:1005200058B9644864490968405C0001634908603F
:100530006FF0F0606249486333E05D48006801286D
:100540000BD15C485F490968405C00015B49086069
:100550006FF0E0605A49486323E05548006802287C
:100560000BD1544858490968405C00015349086060
:100570006FF0D0605249486313E04D48006803288B
:100580000BD14C4851490968405C00014B49086057
:100590006FF0C0604A49486303E04FF0FF304449C0
:1005A00008604648008800F47F604549486140483B
:1005B0000068401C3E49086070474548006840F0AC
:1005C00001004349C439C1F8C40002204FF0402162
:1005D000486040F6B730C8606420886103204861F5
:1005E0000120012181404209920002F1E022C2F87B
:1005F000001100BF4FF0402148607047FFF74CFFEB
:10060000FFF77EFE334800683349084031490860EF
:100610000846C06820F47F10C8602948006840F48C
:100620007F60274908600846006A40F0F060086271
:10063000FFF7C3FF01E0FFF771FFFCE71E4800680A
:10064000401C1D490860084600680A2826D11D483C
:100650000068401C1B4908600020174908601948C1
:1006600000680A281AD118480068401C164908601A
:10067000002014490860144800680A280ED1134865
:100680000068401C1149086000200F4908600F48AD
:1006900000680A2802D100200C4908604FF0402071
:1006A00000684FF0FF304FF04021086070470000B5
:1006B000200000101400001004000010240000109E
:1006C00000C00920080000100C00001010000010ED
:1006D000C4C00F4000C00240FF0000FF01491820C5
:1006E000ABBEFEE726000200704700000C070000CA
:1006F000000000102800000008010000340700007E
:10070000280000106002000024010000C0C62D0077
:1007100000000000000000000000000000000000D9
:100720003F065B4F666D7D077F6F00000000000095
:0407300000000000C5
:04000005000001698D
:00000001FF
