:020000040000FA
:10000000B8020010690100007101000073010000D6
:100010007501000077010000790100000000000078
:100020000000000000000000000000007B01000054
:100030007D010000000000007F0100008101000040
:1000400083010000830100008301000083010000A0
:100050008301000083010000830100008301000090
:100060008301000083010000830100008301000080
:100070008301000083010000830100008301000070
:100080008301000083010000830100008301000060
:100090008301000083010000830100008301000050
:1000A0008301000083010000830100008301000040
:1000B0008301000083010000830100008301000030
:1000C00083010000830100008301000000F002F8BA
:1000D00000F03AF80AA090E8000C82448344AAF1A8
:1000E0000107DA4501D100F02FF8AFF2090EBAE8A6
:1000F0000F0013F0010F18BFFB1A43F0010318475C
:10010000F406000014070000103A24BF78C878C134
:10011000FAD8520724BF30C830C144BF04680C600D
:10012000704700000023002400250026103A28BF55
:1001300078C1FBD8520728BF30C148BF0B60704759
:100140001FB51FBD10B510BD00F0A6F81146FFF792
:10015000F7FF00F09FFA00F0C4F803B4FFF7F2FFD6
:1001600003BC00F0CDF8000009488047094800476B
:10017000FEE7FEE7FEE7FEE7FEE7FEE7FEE7FEE757
:10018000FEE7FEE704480549034A054B70470000B7
:1001900025060000CD000000B8000010B8020010D5
:1001A000B800001053EA020C00F069802DE9F04B12
:1001B0004FF00006002B1FBFB3FA83F503FA05F4D6
:1001C00024FA05F65E4012BF1643B2FA82F502FA2F
:1001D00005F4C5F120051EBF22FA05FC44EA0C0413
:1001E000203556EA044C4FEA144418BF641C4FF003
:1001F00000084FF00009904271EB030C39D300293D
:1002000019BFB1FA81F701FA07F6B0FA80F700FAE0
:1002100007F6C7F120071EBF20FA07FC46EA0C06C6
:100220002037B6FBF4FCA7EB0507103F07F01F0BC8
:10023000CBF120060CFA0BFB2CFA06F644BFB346B2
:100240000026202FA4BF5E464FF0000B5BEA060C91
:1002500008BF4FF0010B19EB0B09ABFB027C48EB1D
:100260000608C01B06FB02CC0BFB03CC71EB0C0198
:10027000C1E70B46024641464846BDE8F08B13B540
:100280004FF000004FF00001AFF30080BDE81C40CC
:100290007047704770477047754600F02BF8AE46C0
:1002A00005006946534620F00700854618B020B582
:1002B000FFF768FFBDE820404FF000064FF0000751
:1002C0004FF000084FF0000B21F00701AC46ACE8FE
:1002D000C009ACE8C009ACE8C009ACE8C0098D466B
:1002E000704710B50446AFF300802046BDE81040CB
:1002F000FFF733BF0048704754000010FFFFFFFFB7
:1003000001491820ABBEFEE726000200704700003E
:100310006FF4F0204D4908614D480068012819D15B
:100320004C48006868B94C480078012809D14B480E
:100330004B49097800EB81004A490978405C4549FE
:10034000086044480068484908606FF4F0203F495D
:10035000486158E03E480068022819D143480068C7
:1003600068B93D480078012809D13C483C490978E2
:1003700000EB81003B490978405C3C4908603B4800
:100380000068394908606FF4E020304948613AE07C
:100390002F480068032819D13548006868B92E48ED
:1003A0000078012809D12D482D49097800EB8100FA
:1003B0002C490978405C2E4908602D4800682A497C
:1003C00008606FF4D020214948611CE02048006893
:1003D000042818D12748006868B91F480078012808
:1003E00009D11E481E49097800EB81001D49097892
:1003F000405C204908601F4800681B4908606FF492
:10040000C020124948616FF47F60104908611648A6
:100410000068000114490860084600680B494861FB
:1004200000201549086004E013480068401C124988
:100430000860114800683228F6D34FF47F60034902
:10044000C8614FF0FF3008617047000000C009200C
:10045000040000100C0000100A000010340000100E
:100460000900001008000010280000101000001003
:1004700014000010180000101C0000102DE9F047B7
:1004800064480068C0F3016003287DD1614884306E
:10049000006800F0030030B1012830D0022859D0A4
:1004A00003282BD100E000BF5A480068C0F3074082
:1004B000441C022157488838D0F88800C0F30E0049
:1004C000401CA1FB0001544B4FF0000CA0FB037932
:1004D00001FB039100FB0C11224663463846FFF7EF
:1004E00061FE05464B487C300068C0B2441C224681
:1004F00000232846FFF756FE4849086056E0454865
:100500000068C0F30740441C022142488838D0F8F4
:100510008800C0F30E00401CA1FB0010404A4FF0C1
:10052000000CA1FB027900FB029001FB0C012246AA
:1005300063463846FFF736FE054636487C3000688D
:10054000C0B2441C224600232846FFF72BFE334945
:1005500008602BE02F480068C0F30740441C0221CC
:100560002C488838D0F88800C0F30E00401CA1FB4E
:1005700000124FF400400023A1FB007902FB009021
:1005800001FB0301224600E011E03846FFF70AFEB6
:10059000054620487C300068C0B2441C2246002337
:1005A0002846FFF7FFFD1D49086000BF30E01948ED
:1005B0008430006800F0030030B1012810D0022818
:1005C00019D0032823D100E000BF12487C30006816
:1005D000C0B2401C1049B1FBF0F01049086016E0B1
:1005E0000C487C300068C0B2401C0D49B1FBF0F0F3
:1005F0000A4908600BE007487C300068C0B2401C24
:100600004FF40041B1FBF0F00449086000BF00BFA7
:10061000BDE8F08788C00F4000093D0000000010D1
:10062000001BB7002020184908601848D0F8A00126
:1006300000F0200030B100BF1348006800F0400017
:100640000028F9D0032010499C39086001200F4987
:10065000C1F8A8010C490C3108600B4994390860B5
:100660000020091F08600A480849C431086040F2A8
:1006700001100649C1F8C8010846006820F470401E
:1006800040F4804008607047A0C10F4000C00F4098
:10069000DE872804FFF7C6FFFFF7F0FE3948006841
:1006A00039490840374908603848006840F47F609D
:1006B000364908603348C06820F47F103149C8606B
:1006C0000846006920F07F6008613048006C40F403
:1006D00070502E4908640846006A20F0F0600862F5
:1006E0002848406820F0FF002649486027480068F5
:1006F00040F4F0202549086042E025480068401C8D
:100700002349086008460068052801D100200860D8
:100710000020204908702FE01E48007820B94FF4CF
:1007200080601D49086017E01A480078012803D14D
:10073000C002194908600FE016480078022803D16A
:10074000C0021549086007E012480078032803D169
:100750004FF40050104908600F4800680B49486585
:1007600000200E49087000F01BF8FFF7D1FD094882
:100770000078401C07490870064800780428CBDB45
:10078000BBE7000000C00240FF0000FF00C00920DE
:100790000400001009000010240000100A000010DE
:1007A0001149486B00F0F060E8B101210F4A117067
:1007B000B0F5000F03D100210D4A117013E0B0F124
:1007C000807F03D101210A4A11700CE0B0F1007F53
:1007D00003D10221064A117005E0B0F1806F02D109
:1007E0000321034A1170704700C009200A0000105D
:1007F0000800001014080000000000105400000061
:1008000008010000680800005400001064020000A5
:1008100024010000C0C62D00000000000000000000
:1008200000000000000000000000000000000000C8
:1008300000000000000000000000000000000000B8
:1008400000000000000000003F065B4F666D7D0762
:100850007F6F734048000000FFFFF9FFFF7FF9FF43
:08086000FFFFF8FFFF7FF8FF26
:04000005000001698D
:00000001FF
