:020000040000FA
:10000000700200106901000071010000730100001E
:100010007501000077010000790100000000000078
:100020000000000000000000000000007B01000054
:100030007D010000000000007F0100008101000040
:1000400083010000830100008301000083010000A0
:100050008301000083010000830100008301000090
:100060008301000083010000830100008301000080
:100070008301000083010000830100008301000070
:100080008301000083010000830100008301000060
:100090008301000083010000830100008301000050
:1000A0008301000083010000830100008301000040
:1000B0008301000083010000830100008301000030
:1000C00083010000830100008301000000F002F8BA
:1000D00000F03AF80AA090E8000C82448344AAF1A8
:1000E0000107DA4501D100F02FF8AFF2090EBAE8A6
:1000F0000F0013F0010F18BFFB1A43F0010318475C
:100100002C0500004C050000103A24BF78C878C1C7
:10011000FAD8520724BF30C830C144BF04680C600D
:10012000704700000023002400250026103A28BF55
:1001300078C1FBD8520728BF30C148BF0B60704759
:100140001FB51FBD10B510BD00F09DF81146FFF79B
:10015000F7FF00F027F800F0BBF803B4FFF7F2FF59
:1001600003BC00F0BFF80000094880470948004779
:10017000FEE7FEE7FEE7FEE7FEE7FEE7FEE7FEE757
:10018000FEE7FEE704480549034A054B70470000B7
:10019000A9040000CD0000007000001070020010E3
:1001A0007000001000F080F900F0AAF82E480068F6
:1001B0002E4908402C4908602D48006840F47F60B3
:1001C0002B4908604FE010202A49086001202A4985
:1001D00008601CE0274800682549886100202749FD
:1001E000086004E025480068401C24490860234852
:1001F00000684CF250318842F4D31E480068400039
:100200001C4908601C480068401C1B4908601A48CB
:1002100000680928DED3102016490860012016491D
:1002200008601CE0134800681149C86100201349A8
:10023000086004E011480068401C104908600F483D
:1002400000684CF250318842F4D30A4800684000FC
:100250000849086008480068401C074908600648CB
:1002600000680928DED3AEE700C00240FF0000FFAF
:1002700000C0092000000010040000100800001059
:10028000704770477047754600F028F8AE46050085
:100290006946534620F00700854618B020B5FFF7A1
:1002A00071FFBDE820404FF000064FF000074FF00F
:1002B00000084FF0000B21F00701AC46ACE8C00984
:1002C000ACE8C009ACE8C009ACE8C0098D4670478D
:1002D0000446AFF300802046FFF73FFF0048704719
:1002E0001000001001491820ABBEFEE726000200F6
:1002F000704700000000000000000000FFFFFFFF4B
:100300002DE9F04782480068C0F3016003287CD1E2
:100310008048006810F0030006D0012833D002287E
:100320005FD003282ED100E000BF79480068C0F3F9
:10033000074000F101044FF002017748D0F888002F
:10034000C0F30E0000F10100A1FB0001734B4FF060
:10035000000CA0FB037901FB039100FB0C1122466A
:100360006346384600F0EAF805466D480068C0B2BA
:1003700000F1010422464FF00003284600F0DEF8A9
:10038000684908605DE062480068C0F3074000F11A
:1003900001044FF002016048D0F88800C0F30E005D
:1003A00000F10100A1FB00105F4A4FF0000CA1FB1F
:1003B000027900FB029001FB0C012246634638469D
:1003C00000F0BCF8054656480068C0B200F10104D0
:1003D00022464FF00003284600F0B0F8514908606B
:1003E0002FE04B480068C0F3074000F101044FF0D4
:1003F00002014948D0F88800C0F30E0000F1010066
:10040000A1FB00124FF4004000E01BE04FF000039E
:10041000A1FB007902FB009001FB03012246384654
:1004200000F08CF805463E480068C0B200F10104B7
:1004300022464FF00003284600F080F83949086052
:1004400000BF2FE03348006810F0030006D00128F9
:1004500010D0022819D0032823D100E000BF304873
:100460000068C0B200F101002C49B1FBF0F02D4949
:10047000086016E02A480068C0B200F101002A496D
:10048000B1FBF0F0274908600BE025480068C0B2D6
:1004900000F101004FF40041B1FBF0F02149086088
:1004A00000BF00BFBDE8F0872020204908601A483F
:1004B000D0F8A00110F0200F05D000BF1B48006845
:1004C00010F0400FFAD003201549086041F2551092
:1004D0001149C1F8A8014FF00500154908604FF017
:1004E00001000C4908604FF00400A1F1040108600C
:1004F0001048114908604FF000000749C1F8C801D1
:100500000846006820F4704040F48040086070475E
:1005100088C00F400CC10F4000C00F4000093D00D3
:1005200004C10F400C000010001BB700A0C10F4019
:10053000ACC10F40DE87280CC4C00F4053EA020C48
:1005400000F069802DE9F04B4FF00006002B1FBF33
:10055000B3FA83F503FA05F424FA05F65E4012BFF8
:100560001643B2FA82F502FA05F4C5F120051EBF62
:1005700022FA05FC44EA0C04203556EA044C4FEA02
:10058000144418BF641C4FF000084FF0000990425B
:1005900071EB030C39D3002919BFB1FA81F701FAC5
:1005A00007F6B0FA80F700FA07F6C7F120071EBF7A
:1005B00020FA07FC46EA0C062037B6FBF4FCA7EB52
:1005C0000507103F07F01F0BCBF120060CFA0BFBC1
:1005D0002CFA06F644BFB3460026202FA4BF5E4681
:1005E0004FF0000B5BEA060C08BF4FF0010B19EB54
:1005F0000B09ABFB027C48EB0608C01B06FB02CCD8
:100600000BFB03CC71EB0C01C1E70B4602464146E4
:100610004846BDE8F08B13B54FF000004FF00001E5
:10062000AFF30080BDE81C40704700004C0600009E
:100630000000001010000000080100005C0600002F
:1006400010000010600200002401000010000000F3
:0C0650000000000000000000C0C62D00EB
:04000005000000CD2A
:00000001FF
