:020000040000FA
:10000000700200106901000071010000730100001E
:100010007501000077010000790100000000000078
:100020000000000000000000000000007B01000054
:100030007D010000000000007F0100008101000040
:1000400083010000830100008301000083010000A0
:100050008301000083010000830100008301000090
:100060008301000083010000830100008301000080
:100070008301000083010000830100008301000070
:100080008301000083010000830100008301000060
:100090008301000083010000830100008301000050
:1000A0008301000083010000830100008301000040
:1000B0008301000083010000830100008301000030
:1000C00083010000830100008301000000F002F8BA
:1000D00000F03AF80AA090E8000C82448344AAF1A8
:1000E0000107DA4501D100F02FF8AFF2090EBAE8A6
:1000F0000F0013F0010F18BFFB1A43F0010318475C
:10010000C4010000E4010000103A24BF78C878C19F
:10011000FAD8520724BF30C830C144BF04680C600D
:10012000704700000023002400250026103A28BF55
:1001300078C1FBD8520728BF30C148BF0B60704759
:100140001FB51FBD10B510BD00F085F81146FFF7B3
:10015000F7FF00F027F800F0A3F803B4FFF7F2FF71
:1001600003BC00F0A7F80000094880470948004791
:10017000FEE7FEE7FEE7FEE7FEE7FEE7FEE7FEE757
:10018000FEE7FEE704480549034A054B70470000B7
:10019000A9040000CD0000007000001070020010E3
:1001A0007000001000F080F900F0AAF82248006802
:1001B00022490840204908602148006840F47F60D7
:1001C0001F4908601C48006920F003001A490861B3
:1001D0001B48006C60F00100194908642BE01848C6
:1001E000406D184908600846006808BB1020164991
:1001F000086017E01448006811494861002013495D
:10020000086004E011480068401C104908600F486D
:1002100000684CF250318842F4D30B48006840002B
:100220000949086008480068B0F57F6F03D0E1E72E
:10023000102005490860D2E700C00240FF0000FF1F
:1002400000C00920040000100C000010080000107D
:10025000704770477047754600F028F8AE460500B5
:100260006946534620F00700854618B020B5FFF7D1
:1002700089FFBDE820404FF000064FF000074FF027
:1002800000084FF0000B21F00701AC46ACE8C009B4
:10029000ACE8C009ACE8C009ACE8C0098D467047BD
:1002A0000446AFF300802046FFF757FF0048704731
:1002B0001000001001491820ABBEFEE72600020026
:1002C00070470000940600000000001010000000BD
:1002D00008010000A40600001000001060020000E9
:1002E00024010000000000000000000000000000E9
:1002F000000000000000000000000000FFFFFFFF02
:100300002DE9F04798480068C0F3016003287CD1CC
:100310009648006810F0030006D0012833D0022868
:100320005FD003282ED100E000BF8F480068C0F3E3
:10033000074000F101044FF002018D48D0F8880019
:10034000C0F30E0000F10100A1FB0001894B4FF04A
:10035000000CA0FB037901FB039100FB0C1122466A
:100360006346384600F01EF9054683480068C0B26F
:1003700000F1010422464FF00003284600F012F974
:100380007E4908605DE078480068C0F3074000F1EE
:1003900001044FF002017648D0F88800C0F30E0047
:1003A00000F10100A1FB0010754A4FF0000CA1FB09
:1003B000027900FB029001FB0C012246634638469D
:1003C00000F0F0F805466C480068C0B200F1010486
:1003D00022464FF00003284600F0E4F86749086021
:1003E0002FE061480068C0F3074000F101044FF0BE
:1003F00002015F48D0F88800C0F30E0000F1010050
:10040000A1FB00124FF4004000E01BE04FF000039E
:10041000A1FB007902FB009001FB03012246384654
:1004200000F0C0F8054654480068C0B200F101046D
:1004300022464FF00003284600F0B4F84F49086008
:1004400000BF2FE04948006810F0030006D00128E3
:1004500010D0022819D0032823D100E000BF46485D
:100460000068C0B200F101004249B1FBF0F043491D
:10047000086016E040480068C0B200F10100404941
:10048000B1FBF0F03D4908600BE03B480068C0B2AA
:1004900000F101004FF40041B1FBF0F03749086072
:1004A00000BF00BFBDE8F087202036490860304813
:1004B000D0F8A00110F0200F05D000BF314800682F
:1004C00010F0400FFAD003202B4908604FF00000D5
:1004D0002749C1F8A8012C4908604FF001002349C1
:1004E00008604FF02300294908604FF0AA0028490E
:1004F00008604FF0550008604FF001002549086082
:100500004FF0AA00224908604FF055001849C1F881
:10051000AC0000BF2048006810F4806FFAD00320C0
:100520001C4908604FF0AA001149C1F8AC004FF017
:1005300055001749086000BF1748006800F4407074
:10054000B0F5407FF8D115481549086040F2011018
:100550000749C1F8C8010846006820F4704040F41B
:10056000804008607047000088C00F400CC10F40F9
:1005700000C00F4000093D0004C10F400000001002
:10058000001BB700A0C10F40ACC10F40A4C00F407A
:10059000ACC00F40A0C00F40A8C00F40DE872804A9
:1005A000C4C00F4053EA020C00F069802DE9F04B03
:1005B0004FF00006002B1FBFB3FA83F503FA05F4D2
:1005C00024FA05F65E4012BF1643B2FA82F502FA2B
:1005D00005F4C5F120051EBF22FA05FC44EA0C040F
:1005E000203556EA044C4FEA144418BF641C4FF0FF
:1005F00000084FF00009904271EB030C39D3002939
:1006000019BFB1FA81F701FA07F6B0FA80F700FADC
:1006100007F6C7F120071EBF20FA07FC46EA0C06C2
:100620002037B6FBF4FCA7EB0507103F07F01F0BC4
:10063000CBF120060CFA0BFB2CFA06F644BFB346AE
:100640000026202FA4BF5E464FF0000B5BEA060C8D
:1006500008BF4FF0010B19EB0B09ABFB027C48EB19
:100660000608C01B06FB02CC0BFB03CC71EB0C0194
:10067000C1E70B46024641464846BDE8F08B13B53C
:100680004FF000004FF00001AFF30080BDE81C40C8
:1006900070470000C0C62D000000000000000000F0
:0406A0000000000056
:04000005000001698D
:00000001FF
