:020000040000FA
:10000000A8020010690100007101000073010000E6
:100010007501000077010000790100000000000078
:100020000000000000000000000000007B01000054
:100030007D010000000000007F0100008101000040
:1000400083010000430700008301000083010000DA
:100050008301000083010000830100008301000090
:100060008301000083010000830100008301000080
:100070008301000083010000830100008301000070
:100080008301000083010000830100008301000060
:100090008301000083010000830100008301000050
:1000A0008301000083010000830100008301000040
:1000B0008301000083010000830100008301000030
:1000C00083010000830100008301000000F002F8BA
:1000D00000F03AF80AA090E8000C82448344AAF1A8
:1000E0000107DA4501D100F02FF8AFF2090EBAE8A6
:1000F0000F0013F0010F18BFFB1A43F0010318475C
:10010000CC060000EC060000103A24BF78C878C185
:10011000FAD8520724BF30C830C144BF04680C600D
:10012000704700000023002400250026103A28BF55
:1001300078C1FBD8520728BF30C148BF0B60704759
:100140001FB51FBD10B510BD00F0A6F81146FFF792
:10015000F7FF00F07AFA00F0C4F803B4FFF7F2FFFB
:1001600003BC00F02DFB0000094880470948004708
:10017000FEE7FEE7FEE7FEE7FEE7FEE7FEE7FEE757
:10018000FEE7FEE704480549034A054B70470000B7
:10019000A9040000CD000000A8000010A802001073
:1001A000A800001053EA020C00F069802DE9F04B22
:1001B0004FF00006002B1FBFB3FA83F503FA05F4D6
:1001C00024FA05F65E4012BF1643B2FA82F502FA2F
:1001D00005F4C5F120051EBF22FA05FC44EA0C0413
:1001E000203556EA044C4FEA144418BF641C4FF003
:1001F00000084FF00009904271EB030C39D300293D
:1002000019BFB1FA81F701FA07F6B0FA80F700FAE0
:1002100007F6C7F120071EBF20FA07FC46EA0C06C6
:100220002037B6FBF4FCA7EB0507103F07F01F0BC8
:10023000CBF120060CFA0BFB2CFA06F644BFB346B2
:100240000026202FA4BF5E464FF0000B5BEA060C91
:1002500008BF4FF0010B19EB0B09ABFB027C48EB1D
:100260000608C01B06FB02CC0BFB03CC71EB0C0198
:10027000C1E70B46024641464846BDE8F08B13B540
:100280004FF000004FF00001AFF30080BDE81C40CC
:100290007047704770477047754600F029F8AE46C2
:1002A00005006946534620F00700854618B020B582
:1002B000FFF768FFBDE820404FF000064FF0000751
:1002C0004FF000084FF0000B21F00701AC46ACE8FE
:1002D000C009ACE8C009ACE8C009ACE8C0098D466B
:1002E00070470446AFF300802046FFF736FF00005A
:1002F000004870474800001070470000FFFFFFFFF4
:100300002DE9F04780480068C0F3016003287CD1E4
:100310007E48006810F0030006D0012833D0022880
:100320005FD003282ED100E000BF77480068C0F3FB
:10033000074000F101044FF002017548D0F8880031
:10034000C0F30E0000F10100A1FB0001714B4FF062
:10035000000CA0FB037901FB039100FB0C1122466A
:1003600063463846FFF71EFF05466B480068C0B27B
:1003700000F1010422464FF000032846FFF712FF68
:10038000664908605DE060480068C0F3074000F11E
:1003900001044FF002015E48D0F88800C0F30E005F
:1003A00000F10100A1FB00105D4A4FF0000CA1FB21
:1003B000027900FB029001FB0C012246634638469D
:1003C000FFF7F0FE054654480068C0B200F1010492
:1003D00022464FF000032846FFF7E4FE4F4908602D
:1003E0002FE049480068C0F3074000F101044FF0D6
:1003F00002014748D0F88800C0F30E0000F1010068
:10040000A1FB00124FF4004000E01BE04FF000039E
:10041000A1FB007902FB009001FB03012246384654
:10042000FFF7C0FE05463C480068C0B200F1010479
:1004300022464FF000032846FFF7B4FE3749086014
:1004400000BF2FE03148006810F0030006D00128FB
:1004500010D0022819D0032823D100E000BF2E4875
:100460000068C0B200F101002A49B1FBF0F02B494D
:10047000086016E028480068C0B200F10100284971
:10048000B1FBF0F0254908600BE023480068C0B2DA
:1004900000F101004FF40041B1FBF0F01F4908608A
:1004A00000BF00BFBDE8F08720201E490860184843
:1004B000D0F8A00110F0200F05D000BF1948006847
:1004C00010F0400FFAD00320134908604FF00100EC
:1004D0000F49C1F8A801144908600C4908604FF0A1
:1004E0000000A1F10401086010481149086040F2C1
:1004F00001100749C1F8C8010846006820F470409F
:1005000040F480400860704788C00F400CC10F4025
:1005100000C00F4000093D0004C10F400000001062
:10052000001BB700A0C10F40ACC10F40DE872804FC
:10053000C4C00F408F480068012808D18E48006869
:100540008E4908606FF0F0608D49486325E0894866
:100550000068022808D18B480068884908606FF05D
:10056000E0608749486318E082480068032808D1A2
:1005700085480068814908606FF0D0608049486311
:100580000BE07C480068042807D1804800687B495C
:1005900008606FF0C0607A4948637848007800F0DE
:1005A0000F00764908607A48006828B979480968D8
:1005B000405C7949086005E0784870490968405C0A
:1005C000754908607448006800017349086008466E
:1005D00000686B49486100207149086004E0704878
:1005E0000068401C6E4908606D480068B0F5FA7FED
:1005F000F5D34FF47F606249C8617047694800686D
:1006000040F002006849C1F8C4004FF020004FF0EC
:100610004021486040F6B83088614FF03000C86330
:100620004FF0030048614FF00100014601FA00F16C
:100630004FEA50124FF0E02303EB8202C2F80011A0
:1006400000BF4FF0402148607047FFF72DFFFFF7D4
:1006500057FE564800685649084054490860084605
:10066000C06820F47F10C8604548006840F47F608F
:10067000434908600846006A40F0F06008625FE0A5
:10068000FFF7BCFF00BF4B4800780028FBD00020DC
:100690004849087037480068401C364908600846D9
:1006A0000068052801D10020086043480078FF2831
:1006B00044D10020404908702F480068401C2E4952
:1006C0000860084600680A281CD1002008602D48F0
:1006D0000068401C2B49086008460068062811D1B4
:1006E0000020086028480068401C27490860084628
:1006F00000680A2806D10020086024480068401CD1
:100700002249086021480068012817D11E48006866
:10071000022813D100201D4908601B4908601949AF
:1007200008600120144908601948006818B90120C0
:100730001749086002E0002015490860FFF7FAFE3B
:100740009EE7FF201B4908701C480068B0F57A7FBF
:1007500006D1FF201849087000201849086004E0FD
:1007600016480068401C1549086001204FF04021E0
:10077000086070471C0000100400001020000010EA
:1007800000C00920080000100C000010100000102C
:1007900014000010240000103C0000102E00001077
:1007A00040000010C4C00F4000C00F4000C0024015
:1007B000FF0000FF38000010390000101800001082
:1007C00001491820ABBEFEE726000200EC0700003E
:1007D000000000104800000008010000340800007C
:1007E000480000106002000024010000C0C62D0077
:1007F00000000000000000000000000000000000F9
:1008000000000000000000000000000000000000E8
:100810003F065B4F666D7D077F6FBF86DBCFE6EDE2
:10082000FD87FFEF00000000000000000000000056
:0408300000000000C4
:04000005000001698D
:00000001FF
