:020000040000FA
:1000000090020010690100007101000073010000FE
:100010007501000077010000790100000000000078
:100020000000000000000000000000007B01000054
:100030007D010000000000007F0100008101000040
:1000400083010000830100008301000083010000A0
:100050008301000083010000830100008301000090
:100060008301000083010000830100008301000080
:100070008301000083010000830100008301000070
:100080008301000083010000830100008301000060
:100090008301000083010000830100008301000050
:1000A0008301000083010000830100008301000040
:1000B0008301000083010000830100008301000030
:1000C00083010000830100008301000000F002F8BA
:1000D00000F03AF80AA090E8000C82448344AAF1A8
:1000E0000107DA4501D100F02FF8AFF2090EBAE8A6
:1000F0000F0013F0010F18BFFB1A43F0010318475C
:1001000098050000B8050000103A24BF78C878C1EF
:10011000FAD8520724BF30C830C144BF04680C600D
:10012000704700000023002400250026103A28BF55
:1001300078C1FBD8520728BF30C148BF0B60704759
:100140001FB51FBD10B510BD00F0A6F81146FFF792
:10015000F7FF00F007FA00F0C4F803B4FFF7F2FF6E
:1001600003BC00F091FA00000948804709480047A5
:10017000FEE7FEE7FEE7FEE7FEE7FEE7FEE7FEE757
:10018000FEE7FEE704480549034A054B70470000B7
:1001900099040000CD0000009000001090020010B3
:1001A0009000001053EA020C00F069802DE9F04B3A
:1001B0004FF00006002B1FBFB3FA83F503FA05F4D6
:1001C00024FA05F65E4012BF1643B2FA82F502FA2F
:1001D00005F4C5F120051EBF22FA05FC44EA0C0413
:1001E000203556EA044C4FEA144418BF641C4FF003
:1001F00000084FF00009904271EB030C39D300293D
:1002000019BFB1FA81F701FA07F6B0FA80F700FAE0
:1002100007F6C7F120071EBF20FA07FC46EA0C06C6
:100220002037B6FBF4FCA7EB0507103F07F01F0BC8
:10023000CBF120060CFA0BFB2CFA06F644BFB346B2
:100240000026202FA4BF5E464FF0000B5BEA060C91
:1002500008BF4FF0010B19EB0B09ABFB027C48EB1D
:100260000608C01B06FB02CC0BFB03CC71EB0C0198
:10027000C1E70B46024641464846BDE8F08B13B540
:100280004FF000004FF00001AFF30080BDE81C40CC
:100290007047704770477047754600F02BF8AE46C0
:1002A00005006946534620F00700854618B020B582
:1002B000FFF768FFBDE820404FF000064FF0000751
:1002C0004FF000084FF0000B21F00701AC46ACE8FE
:1002D000C009ACE8C009ACE8C009ACE8C0098D466B
:1002E000704710B50446AFF300802046BDE81040CB
:1002F000FFF733BF004870472C000010FFFFFFFFDF
:100300002DE9F0477F480068C0F3016003287DD1E4
:100310007C488430006800F0030030B1012830D000
:10032000022859D003282BD100E000BF754800688F
:10033000C0F30740441C022172488838D0F8880076
:10034000C0F30E00401CA1FB00016F4B4FF0000CEE
:10035000A0FB037901FB039100FB0C1122466346CD
:100360003846FFF71FFF054666487C300068C0B27C
:10037000441C224600232846FFF714FF6349086007
:1003800056E060480068C0F30740441C02215D4805
:100390008838D0F88800C0F30E00401CA1FB001084
:1003A0005B4A4FF0000CA1FB027900FB029001FBBD
:1003B0000C01224663463846FFF7F4FE05465148D5
:1003C0007C300068C0B2441C224600232846FFF758
:1003D000E9FE4E4908602BE04A480068C0F3074038
:1003E000441C022147488838D0F88800C0F30E002A
:1003F000401CA1FB00124FF400400023A1FB007938
:1004000002FB009001FB0301224600E011E03846A8
:10041000FFF7C8FE05463B487C300068C0B2441C6C
:10042000224600232846FFF7BDFE3849086000BF7A
:1004300030E034488430006800F0030030B1012817
:1004400010D0022819D0032823D100E000BF2D4886
:100450007C300068C0B2401C2B49B1FBF0F02B4946
:10046000086016E027487C300068C0B2401C28496C
:10047000B1FBF0F0254908600BE022487C300068B1
:10048000C0B2401C4FF40041B1FBF0F01F490860BE
:1004900000BF00BFBDE8F08720201E490860194852
:1004A0008838D0F8A00100F0200030B100BF194812
:1004B000006800F040000028F9D0032011497C3189
:1004C000086001200F498839C1F8A80111490C3191
:1004D00008600C49843108600020091F08600E483C
:1004E00008493C31086040F2011006498839C1F8DA
:1004F000C8010846006820F4704040F4804008605D
:100500007047000088C00F4000093D000000001047
:10051000001BB700A0C10F40DE8728045249486B7A
:1005200000F0F060E8B10121504A1170B0F5000F01
:1005300003D100214E4A117013E0B0F1807F03D146
:1005400001214B4A11700CE0B0F1007F03D1022170
:10055000474A117005E0B0F1806F02D10321444A8F
:1005600011707047FFF798FFFFF7CAFE4148006817
:10057000414908403F4908603B48006840F47F60BB
:10058000394908603B48C06820F47F103949C86089
:100590000846C06820F07F60C8603348006C40F4B3
:1005A0007050314908640846006A20F0F060086223
:1005B0003048406820F0FF002E4948602A48006813
:1005C00040F4F020284908604DE000202B490870D5
:1005D00045E02A48007820B94FF480602849086037
:1005E00017E026480078012803D1C002244908609A
:1005F0000FE022480078022803D1C0022049086099
:1006000007E01E480078032803D14FF400501C492E
:1006100008601B48006814494865002013490870A9
:10062000FFF77CFF11480078012813D16FF40720F1
:100630000D490861002048616FF47F60086111482E
:100640000E49097800EB810009490978405C0001F6
:100650000549486109480078401C08490870074866
:1006600000780428B5DBB0E700C0092006000010C0
:100670000400001000C00240FF0000FF0500001051
:10068000100000101C00001001491820ABBEFEE74E
:100690002600020070470000B806000000000010AD
:1006A0002C00000008010000E40600002C000010EF
:1006B0006402000024010000C0C62D0000000000FC
:1006C000000000000000000000000000000000002A
:1006D000000000003F065B4F666D7D077F6F777CF3
:0406E000395E797195
:04000005000001698D
:00000001FF
