:020000040000FA
:10000000A8020010690100007101000073010000E6
:100010007501000077010000790100000000000078
:100020000000000000000000000000007B01000054
:100030007D010000000000007F0100008101000040
:1000400083010000B9070000830100008301000064
:100050008301000083010000830100008301000090
:100060008301000083010000830100008301000080
:100070008301000083010000830100008301000070
:100080008301000083010000830100008301000060
:100090008301000083010000830100008301000050
:1000A0008301000083010000830100008301000040
:1000B0008301000083010000830100008301000030
:1000C00083010000830100008301000000F002F8BA
:1000D00000F03AF80AA090E8000C82448344AAF1A8
:1000E0000107DA4501D100F02FF8AFF2090EBAE8A6
:1000F0000F0013F0010F18BFFB1A43F0010318475C
:100100004007000060070000103A24BF78C878C19B
:10011000FAD8520724BF30C830C144BF04680C600D
:10012000704700000023002400250026103A28BF55
:1001300078C1FBD8520728BF30C148BF0B60704759
:100140001FB51FBD10B510BD00F0A6F81146FFF792
:10015000F7FF00F06FFA00F0C4F803B4FFF7F2FF06
:1001600003BC00F067FB00000948804709480047CE
:10017000FEE7FEE7FEE7FEE7FEE7FEE7FEE7FEE757
:10018000FEE7FEE704480549034A054B70470000B7
:10019000A9040000CD000000A8000010A802001073
:1001A000A800001053EA020C00F069802DE9F04B22
:1001B0004FF00006002B1FBFB3FA83F503FA05F4D6
:1001C00024FA05F65E4012BF1643B2FA82F502FA2F
:1001D00005F4C5F120051EBF22FA05FC44EA0C0413
:1001E000203556EA044C4FEA144418BF641C4FF003
:1001F00000084FF00009904271EB030C39D300293D
:1002000019BFB1FA81F701FA07F6B0FA80F700FAE0
:1002100007F6C7F120071EBF20FA07FC46EA0C06C6
:100220002037B6FBF4FCA7EB0507103F07F01F0BC8
:10023000CBF120060CFA0BFB2CFA06F644BFB346B2
:100240000026202FA4BF5E464FF0000B5BEA060C91
:1002500008BF4FF0010B19EB0B09ABFB027C48EB1D
:100260000608C01B06FB02CC0BFB03CC71EB0C0198
:10027000C1E70B46024641464846BDE8F08B13B540
:100280004FF000004FF00001AFF30080BDE81C40CC
:100290007047704770477047754600F029F8AE46C2
:1002A00005006946534620F00700854618B020B582
:1002B000FFF768FFBDE820404FF000064FF0000751
:1002C0004FF000084FF0000B21F00701AC46ACE8FE
:1002D000C009ACE8C009ACE8C009ACE8C0098D466B
:1002E00070470446AFF300802046FFF736FF00005A
:1002F000004870474400001070470000FFFFFFFFF8
:100300002DE9F04780480068C0F3016003287CD1E4
:100310007E48006810F0030006D0012833D0022880
:100320005FD003282ED100E000BF77480068C0F3FB
:10033000074000F101044FF002017548D0F8880031
:10034000C0F30E0000F10100A1FB0001714B4FF062
:10035000000CA0FB037901FB039100FB0C1122466A
:1003600063463846FFF71EFF05466B480068C0B27B
:1003700000F1010422464FF000032846FFF712FF68
:10038000664908605DE060480068C0F3074000F11E
:1003900001044FF002015E48D0F88800C0F30E005F
:1003A00000F10100A1FB00105D4A4FF0000CA1FB21
:1003B000027900FB029001FB0C012246634638469D
:1003C000FFF7F0FE054654480068C0B200F1010492
:1003D00022464FF000032846FFF7E4FE4F4908602D
:1003E0002FE049480068C0F3074000F101044FF0D6
:1003F00002014748D0F88800C0F30E0000F1010068
:10040000A1FB00124FF4004000E01BE04FF000039E
:10041000A1FB007902FB009001FB03012246384654
:10042000FFF7C0FE05463C480068C0B200F1010479
:1004300022464FF000032846FFF7B4FE3749086014
:1004400000BF2FE03148006810F0030006D00128FB
:1004500010D0022819D0032823D100E000BF2E4875
:100460000068C0B200F101002A49B1FBF0F02B494D
:10047000086016E028480068C0B200F10100284971
:10048000B1FBF0F0254908600BE023480068C0B2DA
:1004900000F101004FF40041B1FBF0F01F4908608A
:1004A00000BF00BFBDE8F08720201E490860184843
:1004B000D0F8A00110F0200F05D000BF1948006847
:1004C00010F0400FFAD00320134908604FF00100EC
:1004D0000F49C1F8A801144908600C4908604FF0A1
:1004E0000000A1F10401086010481149086040F2C1
:1004F00001100749C1F8C8010846006820F470409F
:1005000040F480400860704788C00F400CC10F4025
:1005100000C00F4000093D0004C10F400000001062
:10052000001BB700A0C10F40ACC10F40DE872804FC
:10053000C4C00F40AD480068012808D1AC4800682D
:10054000AC4908606FF0F060AB49486325E0A7480C
:100550000068022808D1A9480068A64908606FF021
:10056000E060A549486318E0A0480068032808D166
:10057000A34800689F4908606FF0D0609E494863B7
:100580000BE09A480068042807D19E480068994902
:1005900008606FF0C060984948639648007800F0A2
:1005A0000F009449086098480968405C97490860C2
:1005B0000846006800010860084600688E494861E6
:1005C00000209349086004E091480068401C90496D
:1005D00008608F480068B0F5FA7FF5D34FF47F606C
:1005E0008549C86170478B48006840F002008A491D
:1005F000C1F8C4004FF020004FF04021486040F6A1
:10060000B83088614FF03000C8634FF00300486194
:100610004FF00100014601FA00F14FEA50124FF08D
:10062000E02303EB8202C2F8001100BF4FF040212B
:1006300048607047FFF738FFFFF762FE77480068B1
:1006400077490840754908600846C06820F47F1063
:10065000C8606948006840F47F60674908600846E0
:10066000006A40F0F06008626C48006920F0030006
:100670006A4908616048006C20F00F005E49086418
:1006800099E0FFF7B0FF00BF664800780028FBD074
:100690000020644908706448006800283ED153482F
:1006A0000068401E514908600846006808B90420E7
:1006B00008605E480078FF282ED100205B49087052
:1006C0004B480068401E4A49086008460068401CC4
:1006D00022D10F20086049480068401E4749086041
:1006E00008460068401C17D10F2008604448006885
:1006F000401E4349086008460068401C0CD10F208A
:10070000086040480068401E3E490860084600688E
:10071000401C01D10F200860FFF70CFF4248006821
:1007200000283FD031480068401C30490860084626
:100730000068052801D1002008603C480078FF28A7
:100740002ED100203949087029480068401C2849EA
:10075000086008460068102822D100200860274859
:100760000068401C2549086008460068102817D119
:100770000020086022480068401C214908600846A3
:10078000006810280CD1002008601E480068401C3A
:100790001C49086008460068102801D10020086044
:1007A000FFF7C8FE1448406D1F49086008460078EE
:1007B00000F00100086064E7FF201A4908701C4837
:1007C0000068B0F57A7F06D1FF2018490870002034
:1007D0001749086004E016480068401C1449086086
:1007E00001204FF040210860704700001800001001
:1007F000040000101C00001000C0092008000010B8
:100800000C00001010000010200000103400001038
:1008100038000010C4C00F4000C00F4000C00240AC
:10082000FF0000FF300000104000001031000010F9
:100830001400001001491820ABBEFEE7260002009C
:1008400060080000000000104400000008010000E3
:10085000A40800004400001064020000240100000D
:10086000C0C62D00000000000000000000000000D5
:100870000000000000000000000000000000000078
:100880003F065B4F666D7D077F6F777C395E7971C0
:100890000000000000000000000000000000000058
:0408A0000000000054
:04000005000001698D
:00000001FF
