:020000040000FA
:1000000098020010690100007101000073010000F6
:100010007501000077010000790100000000000078
:100020000000000000000000000000007B01000054
:100030007D010000000000007F0100008101000040
:1000400083010000830100008301000083010000A0
:100050008301000083010000830100008301000090
:100060008301000083010000830100008301000080
:100070008301000083010000830100008301000070
:100080008301000083010000830100008301000060
:100090008301000083010000830100008301000050
:1000A0008301000083010000830100008301000040
:1000B0008301000083010000830100008301000030
:1000C00083010000830100008301000000F002F8BA
:1000D00000F03AF80AA090E8000C82448344AAF1A8
:1000E0000107DA4501D100F02FF8AFF2090EBAE8A6
:1000F0000F0013F0010F18BFFB1A43F0010318475C
:100100001C0600003C060000103A24BF78C878C1E5
:10011000FAD8520724BF30C830C144BF04680C600D
:10012000704700000023002400250026103A28BF55
:1001300078C1FBD8520728BF30C148BF0B60704759
:100140001FB51FBD10B510BD00F0A6F81146FFF792
:10015000F7FF00F044F900F0C4F803B4FFF7F2FF32
:1001600003BC00F0D5FA0000094880470948004761
:10017000FEE7FEE7FEE7FEE7FEE7FEE7FEE7FEE757
:10018000FEE7FEE704480549034A054B70470000B7
:100190007D060000CD0000009800001098020010BD
:1001A0009800001053EA020C00F069802DE9F04B32
:1001B0004FF00006002B1FBFB3FA83F503FA05F4D6
:1001C00024FA05F65E4012BF1643B2FA82F502FA2F
:1001D00005F4C5F120051EBF22FA05FC44EA0C0413
:1001E000203556EA044C4FEA144418BF641C4FF003
:1001F00000084FF00009904271EB030C39D300293D
:1002000019BFB1FA81F701FA07F6B0FA80F700FAE0
:1002100007F6C7F120071EBF20FA07FC46EA0C06C6
:100220002037B6FBF4FCA7EB0507103F07F01F0BC8
:10023000CBF120060CFA0BFB2CFA06F644BFB346B2
:100240000026202FA4BF5E464FF0000B5BEA060C91
:1002500008BF4FF0010B19EB0B09ABFB027C48EB1D
:100260000608C01B06FB02CC0BFB03CC71EB0C0198
:10027000C1E70B46024641464846BDE8F08B13B540
:100280004FF000004FF00001AFF30080BDE81C40CC
:100290007047704770477047754600F029F8AE46C2
:1002A00005006946534620F00700854618B020B582
:1002B000FFF768FFBDE820404FF000064FF0000751
:1002C0004FF000084FF0000B21F00701AC46ACE8FE
:1002D000C009ACE8C009ACE8C009ACE8C0098D466B
:1002E00070470446AFF300802046FFF736FF00005A
:1002F000004870473800001070470000FFFFFFFF04
:1003000066480068012808D16548006865490860AA
:100310006FF0F0606449486325E060480068022897
:1003200008D1624800685F4908606FF0E0605E498C
:10033000486318E059480068032808D15C48006801
:10034000584908606FF0D060574948630BE0534844
:100350000068042807D157480068524908606FF0C8
:10036000C060514948634F48007800F00F004D4984
:10037000086051480968405C5049086008460068B8
:1003800000010860084600684749486100204C4960
:10039000086004E04A480068401C49490860484831
:1003A0000068B0F5FA7FF5D34FF47F603E49C8612D
:1003B0007047002000E0401C6428FCD341490968D4
:1003C000642906D1FF21404A117000213D4A116085
:1003D00004E03C490968491C3A4A1160704700F042
:1003E0004DF900F077F83948006839490840374935
:1003F00008600846C06820F47F10C8602A4800687A
:1004000040F47F60284908600846006A40F0F060C8
:10041000086241E0FFF7CDFF20480068401C1F49FB
:10042000086008460068052801D1002008602648B9
:100430000078FF282ED10020234908701848006852
:10044000401C17490860084600680A2822D100208D
:10045000086016480068401C144908600846006897
:100460000A2817D10020086011480068401C104974
:100470000860084600680A280CD1002008600D4872
:100480000068401C0B490860084600680A2801D132
:1004900000200860FFF734FFBCE7000014000010E4
:1004A000000000101800001000C009200400001017
:1004B000080000100C0000101C00001028000010A4
:1004C0002C000010100000102700001000C0024097
:1004D000FF0000FF2DE9F04782480068C0F301608B
:1004E00003287CD18048006810F0030006D0012862
:1004F00033D002285FD003282ED100E000BF794816
:100500000068C0F3074000F101044FF00201774892
:10051000D0F88800C0F30E0000F10100A1FB00013B
:10052000734B4FF0000CA0FB037901FB039100FB20
:100530000C11224663463846FFF734FE05466D48E7
:100540000068C0B200F1010422464FF000032846C3
:10055000FFF728FE684908605DE062480068C0F364
:10056000074000F101044FF002016048D0F8880014
:10057000C0F30E0000F10100A1FB00105F4A4FF034
:10058000000CA1FB027900FB029001FB0C0122464A
:1005900063463846FFF706FE054656480068C0B277
:1005A00000F1010422464FF000032846FFF7FAFD50
:1005B000514908602FE04B480068C0F3074000F144
:1005C00001044FF002014948D0F88800C0F30E0042
:1005D00000F10100A1FB00124FF4004000E01BE01D
:1005E0004FF00003A1FB007902FB009001FB030127
:1005F00022463846FFF7D6FD05463E480068C0B2A1
:1006000000F1010422464FF000032846FFF7CAFD1F
:100610003949086000BF2FE03348006810F003003C
:1006200006D0012810D0022819D0032823D100E0D9
:1006300000BF30480068C0B200F101002C49B1FB96
:10064000F0F02D49086016E02A480068C0B200F1B9
:1006500001002A49B1FBF0F0274908600BE025486A
:100660000068C0B200F101004FF40041B1FBF0F0AE
:100670002149086000BF00BFBDE8F0872020204965
:1006800008601A48D0F8A00110F0200F05D000BF74
:100690001B48006810F0400FFAD00320154908608D
:1006A00041F255101149C1F8A8014FF00500154954
:1006B00008604FF001000C4908604FF00400A1F100
:1006C000040108601048114908604FF00000074914
:1006D000C1F8C8010846006820F4704040F480402A
:1006E0000860704788C00F400CC10F4000C00F4029
:1006F00000093D0004C10F4034000010001BB7008A
:10070000A0C10F40ACC10F40DE87280CC4C00F4011
:1007100001491820ABBEFEE7260002003C0700009E
:1007200000000010380000000801000074070000FD
:1007300038000010600200002401000000000000EA
:1007400000000000000000000000000000000000A9
:1007500000000000000000003F065B4F666D7D0753
:100760007F6F00000000000000000000000000009B
:04077000C0C62D00D2
:04000005000000CD2A
:00000001FF
