:020000040000FA
:10000000D8020010850100008D0100008F01000062
:100010009101000093010000950100000000000024
:100020000000000000000000000000009701000038
:1000300099010000000000009B0100009D010000EC
:100040009F0100009F0100009F0100009F01000030
:100050009F0100009F0100009F0100009F01000020
:100060009F0100009F0100009F0100009F01000010
:100070009F0100009F0100009F0100009F01000000
:100080009F0100009F0100009F0100009F010000F0
:100090009F0100000D0700009F0100009F0100006C
:1000A0009F0100009F0100009F0100009F010000D0
:1000B0009F0100009F0100009F0100009F010000C0
:1000C0009F0100009F0100009F01000000F002F866
:1000D00000F048F80AA090E8000C82448344AAF19A
:1000E0000107DA4501D100F03DF8AFF2090EBAE898
:1000F0000F0013F0010F18BFFB1A43F0010318475C
:100100004410000064100000103A24BF78C878C181
:10011000FAD8520724BF30C830C144BF04680C600D
:10012000704700000023002400250026103A28BF55
:1001300078C1FBD8520728BF30C148BF0B60704759
:10014000642900F01181002070471FB500F07CFA8F
:1001500004000020002100F0DFFF401C60601FBD94
:1001600010B510BD00F04BFA1146FFF7EEFF00F09E
:10017000A3FE00F07BFA03B4FFF7F2FF03BC00F02C
:10018000BFFA00000948804709480047FEE7FEE73C
:10019000FEE7FEE7FEE7FEE7FEE7FEE7FEE7FEE737
:1001A00004480549034A054B70470000550C000000
:1001B000CD000000D8000010D8020010D8000010B8
:1001C00053EA020C00F069802DE9F04B4FF0000675
:1001D000002B1FBFB3FA83F503FA05F424FA05F6E2
:1001E0005E4012BF1643B2FA82F502FA05F4C5F179
:1001F00020051EBF22FA05FC44EA0C04203556EA0D
:10020000044C4FEA144418BF641C4FF000084FF030
:100210000009904271EB030C39D3002919BFB1FAE0
:1002200081F701FA07F6B0FA80F700FA07F6C7F18E
:1002300020071EBF20FA07FC46EA0C062037B6FB53
:10024000F4FCA7EB0507103F07F01F0BCBF12006CE
:100250000CFA0BFB2CFA06F644BFB3460026202FFF
:10026000A4BF5E464FF0000B5BEA060C08BF4FF0E0
:10027000010B19EB0B09ABFB027C48EB0608C01B1A
:1002800006FB02CC0BFB03CC71EB0C01C1E70B4668
:10029000024641464846BDE8F08B13B54FF00000DA
:1002A0004FF00001AFF30080BDE81C407047000034
:1002B0000FB41CB5074B06AA7B446946009005980D
:1002C00000F0F1F80020694600F000F91CBC5DF870
:1002D00014FB00001102000070B5064600F080F823
:1002E0000468054630460A22002100F0F4F82C602C
:1002F00070BD70477047704770470000FFFFFFFFF9
:100300002DE9F0410E460446002020622046E168B7
:10031000884730B3252805D0D4E901219047206AC9
:10032000401CF2E7E168204600278847050018D006
:10033000A5F14100192802D820354FF40067324654
:10034000294620462760FFF7FBFE40B1012804D074
:10035000F61D26F007060836D8E7361DD6E72846EC
:10036000DAE7206ABDE8F0812DE9F0410646002475
:1003700010687529314616A510D0AFF3008000280B
:1003800002DA404213A507E031688A0701D512A5B9
:1003900002E0490704D511A5012401E0AFF3008074
:1003A00000210A2206F1240709E0B0FBF2FCB0FBB1
:1003B000F2F302FB1C00303078541846491C002828
:1003C000F3D123462A463046BDE8F04100F00CB890
:1003D000000000002D0000002B00000020000000A5
:1003E00000487047780000102DE9F0470D46994607
:1003F0009246044600F124080168880604D5E069A5
:1004000021F01001216000E00120A84201DD471B1E
:1004100000E00027A1697A1902EB0900081AA0611F
:100420002078C00602D42046AFF30080002608E002
:10043000D4E901211AF806009047206A401C761C76
:1004400020624E45F4DB2078C0060AD52046AFF383
:10045000008006E0D4E9012130209047206A401C4A
:100460002062381EA7F10107F4DC07E0D4E901217E
:1004700018F805009047206A401C2062281EA5F14C
:100480000105F3DC2046AFF300802078000602D59A
:100490000220BDE8F0870120FBE7000001694A1C4B
:1004A00002610878704700B58FB0CDE901310021B5
:1004B000059105497944CDE9031011466846FFF7D7
:1004C0001FFF0FB000BD0000E5FFFFFF0A6802F844
:1004D000010B0A6070472DE9F04791460F468046B0
:1004E0000446002614F8015B2DB100F031F80068D5
:1004F000405DC007F6D12B2D02D02D2D18D0641EE3
:100500004A463946204600F02BF827B13968A14207
:1005100001D1C7F800804FF0020471050BD54042AD
:10052000002803DDFFF75CFF0460A007BDE8F0874B
:1005300046F48066E4E70028F8DAFFF751FF04602C
:100540006FF00040F2E700000048704778000010AC
:1005500010B500F079F8001D10BD00BFBD0B000004
:100560002DE9F05F824615468B4600270AF101040B
:10057000B9460078302801D09DB113E014F8010B82
:100580000127782803D0582801D045B10AE00DB1E1
:10059000102D07D1002714F8010B102502E00825C3
:1005A00000E00A250026B0460EE005FB080005FB2A
:1005B00006F101271FFA80F801EB1046B6F5803FDF
:1005C00000D3B94614F8010B294600F041F8002881
:1005D000EBDABBF1000F05D00FB1641E00E054460A
:1005E000CBF80040B9F1000F06D0FFF7F9FE022169
:1005F0000160C81EBDE8F09F48EA0640FAE775466C
:10060000FFF7A2FFAE4605006946534620F00700FB
:10061000854618B020B5FFF7C3FDBDE820404FF078
:1006200000064FF000074FF000084FF0000B21F0DC
:100630000701AC46ACE8C009ACE8C009ACE8C009A9
:10064000ACE8C0098D46704700487047980000101C
:100650003A2800D2303820F02002412A01D3A2F1FA
:100660003700884201D34FF0FF30704710B5044681
:10067000AFF300802046BDE81040FFF77CBD0000CE
:100680004FF0013C50F8042B51F8043B9A4221D121
:10069000A2EB0C03934313EACC1317D150F8042BAD
:1006A00051F8043B9A4215D1A2EB0C03934313EA91
:1006B000CC130BD150F8042B51F8043B9A4209D1CA
:1006C000A2EB0C03934313EACC13DBD04FF00000F2
:1006D000704700BFD01A01BAB1FA81F101F01801D8
:1006E00022FA01F0CB40C1F12001DBB2C0B2C01A46
:1006F0002CFA01F3D11A914311EAC311E6D17047E4
:1007000001491820ABBEFEE72600020010B5DC4808
:10071000046804F4F0246FF4FF00DA490861002053
:10072000D949086004E0D8480068401CD6490860F0
:10073000D54800686428F6D3B4F5004F03D10020F3
:10074000D249086018E0B4F5803F03D10120CF49B9
:10075000086011E0B4F5003F03D10220CB490860E6
:100760000AE0B4F5802F03D10320C849086003E0F4
:100770004FF0FF30C54908604FF4F000C149C8612F
:100780000020C34908603DE0C148006850B94FF4FB
:100790000020BC4988610846406900F4F020A0426E
:1007A0002BD133E0BA480068012809D10005B549CA
:1007B00088610846406900F4F020A0421DD125E080
:1007C000B3480068022809D10005AE49886108468F
:1007D000406900F4F020A0420FD117E0AC48006857
:1007E00003280AD14FF48000A64988610846406971
:1007F00000F4F020A04200D108E0A5480068401CA9
:10080000A3490860A24800680428BDD300BF9F48E0
:100810000068401C002812D09D48006880B99B48A1
:10082000006868B931219B4802680068401C994BF8
:1008300018609948815400211A46126881540EE1CB
:100840009348006888B99148006801280DD1322189
:10085000904802680068401C8E4B18608E48815496
:1008600000211A4612688154F9E08948006890B95D
:100870008648006802280ED1332186480268006845
:10088000401C844B186084488154002082491A46D9
:1008900012688854E3E07E48006860B97B480068CD
:1008A000032808D100217B480068401E794A106067
:1008B000794A1154D3E076480068012810D1734872
:1008C000006868B93422734801680068401C714BA5
:1008D00018607148425400211A4612688154BEE0E3
:1008E0006B480068012811D16848006801280DD1C3
:1008F0003522684801680068401C664B18606648ED
:10090000425400211A4612688154A8E060480068E9
:10091000012812D15D48006802280ED136225D48B8
:1009200001680068401C5B4B18605B484254002023
:1009300059491A461268885491E0554800680228BF
:1009400011D15248006870B93721524802680068D6
:10095000401C504B18605048815400204E491A46A4
:10096000126888547BE04A480068022812D1474840
:10097000006801280ED13821464802680068401CF2
:10098000444B186044488154002043491A46126879
:10099000885464E03E480068022812D13B48006851
:1009A00002280ED139223B4801680068401C394BAF
:1009B000186039484254002037491A461268885452
:1009C0004DE033480068032812D130480068012800
:1009D0000ED130222F4801680068401C2D4B186052
:1009E0002D48425400202C491A461268885436E09B
:1009F00027480068032832D12448006803282ED1F4
:100A00002648006890B925480068401C23490860C2
:100A10002148FFF761FC2249086000201D49086059
:100A200000211D481B4A1268815418E01B480068C9
:100A3000012814D11B480068401C1A490860164858
:100A4000FFF74AFC18490968084417490860002064
:100A500010490860002110480E4A12688154084865
:100A60000830006840F4F02005498439C1F88C0052
:100A70004FF4F000034988616FF0FC50086110BD2D
:100A80008480024000C00920740000101000001093
:100A90000C00001064000010140000106000001032
:100AA0006C00001070000010680000102DE9F04785
:100AB00064480068C0F3016003287DD16148843038
:100AC000006800F0030030B1012830D0022859D06E
:100AD00003282BD100E000BF5A480068C0F307404C
:100AE000441C022157488838D0F88800C0F30E0013
:100AF000401CA1FB0001544B4FF0000CA0FB0379FC
:100B000001FB039100FB0C11224663463846FFF7B8
:100B100057FB05464B487C300068C0B2441C224657
:100B200000232846FFF74CFB4849086056E045483B
:100B30000068C0F30740441C022142488838D0F8BE
:100B40008800C0F30E00401CA1FB0010404A4FF08B
:100B5000000CA1FB027900FB029001FB0C01224674
:100B600063463846FFF72CFB054636487C30006864
:100B7000C0B2441C224600232846FFF721FB33491C
:100B800008602BE02F480068C0F30740441C022196
:100B90002C488838D0F88800C0F30E00401CA1FB18
:100BA00000124FF400400023A1FB007902FB0090EB
:100BB00001FB0301224600E011E03846FFF700FB8D
:100BC000054620487C300068C0B2441C2246002301
:100BD0002846FFF7F5FA1D49086000BF30E01948C4
:100BE0008430006800F0030030B1012810D00228E2
:100BF00019D0032823D100E000BF12487C300068E0
:100C0000C0B2401C1049B1FBF0F01049086016E07A
:100C10000C487C300068C0B2401C0D49B1FBF0F0BC
:100C20000A4908600BE007487C300068C0B2401CED
:100C30004FF40041B1FBF0F00449086000BF00BF71
:100C4000BDE8F08788C00F4000093D00000000109B
:100C5000001BB7002020184908601848D0F8A001F0
:100C600000F0200030B100BF1348006800F04000E1
:100C70000028F9D0032010499C39086001200F4951
:100C8000C1F8A8010C490C3108600B49943908607F
:100C90000020091F08600A480849C431086040F272
:100CA00001100649C1F8C8010846006820F47040E8
:100CB00040F4804008607047A0C10F4000C00F4062
:100CC000DE8728044FF0F0600349C8614FF00060F0
:100CD000C8614000C861704700C0092000B501200C
:100CE0000449086000F00EF842F2107000F004F8B9
:100CF00000BD000004000010002100E0491C8142FA
:100D0000FCD3704700B50E48007800F0F0000D49A4
:100D1000086008460088C004086000F0CDF9084863
:100D2000007800F00F000749086008460088C005F9
:100D3000086000F0C1F94FF47A70FFF7DDFF00BDE5
:100D4000040000100800001000B50E48007800F004
:100D5000F0000D49086008460088C004086000F0F3
:100D6000C3F90848007800F00F00074908600846FA
:100D70000088C005086000F0B7F94FF47A70FFF7FB
:100D8000BBFF00BD040000100800001000B539488A
:100D9000406839490840374948603848006840F0A1
:100DA000F060364908600846006840F0006008605E
:100DB0000846006840F080500860FFF783FF4FF45A
:100DC0004860FFF799FF4FF0C0702D49086000F0B0
:100DD00073F947F23050FFF78FFF4FF0C07028498A
:100DE000086000F069F947F23050FFF785FF4FF0D7
:100DF000C0702349086000F05FF947F23050FFF7F8
:100E00007BFF4FF080701E49086000F055F947F2F3
:100E10003050FFF771FF28201A490860FFF772FF72
:100E200047F23050FFF768FF0C2016490860FFF7C3
:100E300069FF4FF44870FFF75FFF06201149086013
:100E4000FFF760FF4FF44870FFF756FF01200D4990
:100E50000860FFF757FF42F21070FFF74DFF802048
:100E600008490860FFF74EFF4FF44870FFF744FF52
:100E700000BD000000C00240FF3F00FC00C0092090
:100E8000080000100400001010B5044600230CE018
:100E9000E05C08490860FFF757FF5B1C102B04D18A
:100EA000C02004490860FFF72DFFE05C0028EFD167
:100EB00010BD000004000010FFF7CCFEFFF7F6FDA8
:100EC00000206D4908606D496B4A126888546C486F
:100ED000006820F040406A4908600846406800F019
:100EE0007C4048606748006840F4F000654908604D
:100EF0000846006820F4F02008606348006840F469
:100F0000F02061499039C1F890006FF0FC505D49C4
:100F10000861FFF73BFF4FF44860FFF7EDFE6FF409
:100F2000FF00584908614FF4F00088611520012145
:100F300081404209920002F1E022C2F8001100BF94
:100F400098E05248006878BB6FF0FC504D4908614A
:100F5000FFF7C4FE80204E490860FFF7D3FE4FF430
:100F60004870FFF7C9FE4B48FFF78EFF17E0C0201F
:100F700047490860FFF7C6FE4FF44870FFF7BCFE14
:100F80004548FFF781FFC02041490860FFF7BAFEDE
:100F90004FF44870FFF7B0FE3848FFF775FF3B4845
:100FA0000068002866D1E2E7FFE7384800680128BA
:100FB00036D16FF0FC5033490861FFF78FFE802077
:100FC00033490860FFF79EFE4FF44870FFF794FE28
:100FD0003248FFF759FF17E0C0202D490860FFF79E
:100FE00091FE4FF44870FFF787FE2B48FFF74CFF48
:100FF000C02027490860FFF785FE4FF44870FFF7CF
:101000007BFE1E48FFF740FF254800682549096818
:101010008842E1D31D480068401C1C49086029E053
:101020001A480068022825D16FF0FC501549086164
:10103000FFF754FE802016490860FFF763FE4FF467
:101040004870FFF759FE1848FFF71EFF174818A110
:1010500002681848FFF72CF9C0200D490860FFF717
:1010600051FE4FF44870FFF747FE1248FFF70CFFA0
:1010700000BFFEE765E700006400001014000010E8
:1010800000C0024000C009209080024060000010B3
:1010900004000010200000104C0000103000001070
:1010A000700000106C0000103F000010680000107D
:1010B000256400001800001000B5FFF703FE084883
:1010C0000068084948614FF00060C86140008861CD
:1010D0001920FFF711FE4FF080500249C86100BD92
:1010E0000800001000C0092000B5FFF7EBFD08481C
:1010F0000068084948614FF00060886140008861DD
:101100001920FFF7F9FD4FF080500249C86100BD7A
:101110000800001000C0092010B500290AD0087886
:10112000002807D005487844FFF7AAFA002801D024
:10113000002010BD0248784410BD00003E000000B1
:10114000360000007412000000000010780000005B
:1011500008010000EC12000078000010600200009E
:10116000240100001001000043000000F8FFFFFF11
:1011700000404040404040404040414141414140AA
:10118000404040404040404040404040404040405F
:1011900040050202020202020202020202020202EE
:1011A00002202020202020202020200202020202F3
:1011B000020290909090909010101010101010104B
:1011C0001010101010101010101010100202020257
:1011D000020288888888888808080808080808089B
:1011E0000808080808080808080808080202020297
:1011F00040000000000000000000000000000000AF
:1012000000000000000000000000000000000000DE
:1012100000000000000000000000000000000000CE
:1012200000000000000000000000000000000000BE
:1012300000000000000000000000000000000000AE
:10124000000000000000000000000000000000009E
:10125000000000000000000000000000000000008E
:10126000000000000000000000000000000000007E
:1012700000000000C0C62D000000000000000000BB
:10128000000000000000000000000000000000005E
:10129000000000004E756D626572206F66206E6FF3
:1012A000732E3F00456E746572206E756D626572B7
:1012B000733A004243442073756D2069733A2000ED
:1012C000202020202020202020202020202020201E
:1012D000000000000000000000000000000000000E
:0C12E00000000000000000000000000002
:040000050000018571
:00000001FF
