:020000040000FA
:10000000D0020010850100008D0100008F0100006A
:100010009101000093010000950100000000000024
:100020000000000000000000000000009701000038
:1000300099010000000000009B0100009D010000EC
:100040009F0100009F0100009F0100009F01000030
:100050009F0100009F0100009F0100009F01000020
:100060009F0100009F0100009F0100009F01000010
:100070009F0100009F0100009F0100009F01000000
:100080009F0100009F0100009F0100009F010000F0
:100090009F0100000D0700009F0100009F0100006C
:1000A0009F0100009F0100009F0100009F010000D0
:1000B0009F0100009F0100009F0100009F010000C0
:1000C0009F0100009F0100009F01000000F002F866
:1000D00000F048F80AA090E8000C82448344AAF19A
:1000E0000107DA4501D100F03DF8AFF2090EBAE898
:1000F0000F0013F0010F18BFFB1A43F0010318475C
:100100005C0F00007C0F0000103A24BF78C878C153
:10011000FAD8520724BF30C830C144BF04680C600D
:10012000704700000023002400250026103A28BF55
:1001300078C1FBD8520728BF30C148BF0B60704759
:10014000642900F01181002070471FB500F07CFA8F
:1001500004000020002100F06BFF401C60601FBD08
:1001600010B510BD00F04BFA1146FFF7EEFF00F09E
:1001700071FE00F07BFA03B4FFF7F2FF03BC00F05E
:10018000BFFA00000948804709480047FEE7FEE73C
:10019000FEE7FEE7FEE7FEE7FEE7FEE7FEE7FEE737
:1001A00004480549034A054B70470000810C0000D4
:1001B000CD000000D0000010D0020010D0000010D0
:1001C00053EA020C00F069802DE9F04B4FF0000675
:1001D000002B1FBFB3FA83F503FA05F424FA05F6E2
:1001E0005E4012BF1643B2FA82F502FA05F4C5F179
:1001F00020051EBF22FA05FC44EA0C04203556EA0D
:10020000044C4FEA144418BF641C4FF000084FF030
:100210000009904271EB030C39D3002919BFB1FAE0
:1002200081F701FA07F6B0FA80F700FA07F6C7F18E
:1002300020071EBF20FA07FC46EA0C062037B6FB53
:10024000F4FCA7EB0507103F07F01F0BCBF12006CE
:100250000CFA0BFB2CFA06F644BFB3460026202FFF
:10026000A4BF5E464FF0000B5BEA060C08BF4FF0E0
:10027000010B19EB0B09ABFB027C48EB0608C01B1A
:1002800006FB02CC0BFB03CC71EB0C01C1E70B4668
:10029000024641464846BDE8F08B13B54FF00000DA
:1002A0004FF00001AFF30080BDE81C407047000034
:1002B0000FB41CB5074B06AA7B446946009005980D
:1002C00000F0F1F80020694600F000F91CBC5DF870
:1002D00014FB00001102000070B5064600F080F823
:1002E0000468054630460A22002100F0F4F82C602C
:1002F00070BD70477047704770470000FFFFFFFFF9
:100300002DE9F0410E460446002020622046E168B7
:10031000884730B3252805D0D4E901219047206AC9
:10032000401CF2E7E168204600278847050018D006
:10033000A5F14100192802D820354FF40067324654
:10034000294620462760FFF7FBFE40B1012804D074
:10035000F61D26F007060836D8E7361DD6E72846EC
:10036000DAE7206ABDE8F0812DE9F0410646002475
:1003700010687529314616A510D0AFF3008000280B
:1003800002DA404213A507E031688A0701D512A5B9
:1003900002E0490704D511A5012401E0AFF3008074
:1003A00000210A2206F1240709E0B0FBF2FCB0FBB1
:1003B000F2F302FB1C00303078541846491C002828
:1003C000F3D123462A463046BDE8F04100F00CB890
:1003D000000000002D0000002B00000020000000A5
:1003E00000487047700000102DE9F0470D4699460F
:1003F0009246044600F124080168880604D5E069A5
:1004000021F01001216000E00120A84201DD471B1E
:1004100000E00027A1697A1902EB0900081AA0611F
:100420002078C00602D42046AFF30080002608E002
:10043000D4E901211AF806009047206A401C761C76
:1004400020624E45F4DB2078C0060AD52046AFF383
:10045000008006E0D4E9012130209047206A401C4A
:100460002062381EA7F10107F4DC07E0D4E901217E
:1004700018F805009047206A401C2062281EA5F14C
:100480000105F3DC2046AFF300802078000602D59A
:100490000220BDE8F0870120FBE7000001694A1C4B
:1004A00002610878704700B58FB0CDE901310021B5
:1004B000059105497944CDE9031011466846FFF7D7
:1004C0001FFF0FB000BD0000E5FFFFFF0A6802F844
:1004D000010B0A6070472DE9F04791460F468046B0
:1004E0000446002614F8015B2DB100F031F80068D5
:1004F000405DC007F6D12B2D02D02D2D18D0641EE3
:100500004A463946204600F02BF827B13968A14207
:1005100001D1C7F800804FF0020471050BD54042AD
:10052000002803DDFFF75CFF0460A007BDE8F0874B
:1005300046F48066E4E70028F8DAFFF751FF04602C
:100540006FF00040F2E700000048704770000010B4
:1005500010B500F079F8001D10BD00BFD50A0000ED
:100560002DE9F05F824615468B4600270AF101040B
:10057000B9460078302801D09DB113E014F8010B82
:100580000127782803D0582801D045B10AE00DB1E1
:10059000102D07D1002714F8010B102502E00825C3
:1005A00000E00A250026B0460EE005FB080005FB2A
:1005B00006F101271FFA80F801EB1046B6F5803FDF
:1005C00000D3B94614F8010B294600F041F8002881
:1005D000EBDABBF1000F05D00FB1641E00E054460A
:1005E000CBF80040B9F1000F06D0FFF7F9FE022169
:1005F0000160C81EBDE8F09F48EA0640FAE775466C
:10060000FFF7A2FFAE4605006946534620F00700FB
:10061000854618B020B5FFF7C3FDBDE820404FF078
:1006200000064FF000074FF000084FF0000B21F0DC
:100630000701AC46ACE8C009ACE8C009ACE8C009A9
:10064000ACE8C0098D467047004870479000001024
:100650003A2800D2303820F02002412A01D3A2F1FA
:100660003700884201D34FF0FF30704710B5044681
:10067000AFF300802046BDE81040FFF77CBD0000CE
:100680004FF0013C50F8042B51F8043B9A4221D121
:10069000A2EB0C03934313EACC1317D150F8042BAD
:1006A00051F8043B9A4215D1A2EB0C03934313EA91
:1006B000CC130BD150F8042B51F8043B9A4209D1CA
:1006C000A2EB0C03934313EACC13DBD04FF00000F2
:1006D000704700BFD01A01BAB1FA81F101F01801D8
:1006E00022FA01F0CB40C1F12001DBB2C0B2C01A46
:1006F0002CFA01F3D11A914311EAC311E6D17047E4
:1007000001491820ABBEFEE72600020010B5E648FE
:10071000046804F4F0246FF4FF00E4490861002049
:10072000E349086004E0E2480068401CE0490860D2
:10073000DF4800686428F6D3B4F5004F03D10020E9
:10074000DC49086018E0B4F5803F03D10120D949A5
:10075000086011E0B4F5003F03D10220D5490860DC
:100760000AE0B4F5802F03D10320D249086003E0EA
:100770004FF0FF30CF4908604FF4F000CB49C8611B
:100780000020CD4908603DE0CB48006850B94FF4E7
:100790000020C64988610846406900F4F020A04264
:1007A0002BD133E0C4480068012809D10005BF49B6
:1007B00088610846406900F4F020A0421DD125E080
:1007C000BD480068022809D10005B849886108467B
:1007D000406900F4F020A0420FD117E0B64800684D
:1007E00003280AD14FF48000B04988610846406967
:1007F00000F4F020A04200D108E0AF480068401C9F
:10080000AD490860AC4800680428BDD300BFA948C2
:100810000068401C002812D0A748006880B9A5488D
:10082000006868B93121A54802680068401CA34BE4
:100830001860A348815400211A46126881540EE1C1
:100840009D48006888B99B48006801280DD1322175
:100850009A4802680068401C984B18609848815478
:1008600000211A4612688154F9E09348006890B953
:100870009048006802280ED1332190480268006831
:10088000401C8E4B18608E48815400208C491A46BB
:1008900012688854E3E08848006860B985480068B9
:1008A000032808D1002185480068401E834A106053
:1008B000834A1154D3E080480068012810D17D4854
:1008C000006868B934227D4801680068401C7B4B91
:1008D00018607B48425400211A4612688154BEE0D9
:1008E00075480068012811D17248006801280DD1AF
:1008F0003522724801680068401C704B18607048CF
:10090000425400211A4612688154A8E06A480068DF
:10091000012812D16748006802280ED136226748A4
:1009200001680068401C654B18606548425400200F
:1009300063491A461268885491E05F4800680228AB
:1009400011D15C48006870B937215C4802680068C2
:10095000401C5A4B18605A488154002058491A4686
:10096000126888547BE054480068022812D151482C
:10097000006801280ED13821504802680068401CE8
:100980004E4B18604E48815400204D491A4612685B
:10099000885464E048480068022812D1454800683D
:1009A00002280ED13922454801680068401C434B9B
:1009B000186043484254002041491A46126888543E
:1009C0004DE03D480068032812D13A4800680128EC
:1009D0000ED13022394801680068401C374B18603E
:1009E00037484254002036491A461268885436E087
:1009F00031480068032832D12E48006803282ED1E0
:100A00003048006890B92F480068401C2D490860A4
:100A10002B48FFF761FC2C4908600020274908603B
:100A200000212748254A1268815418E025480068AB
:100A3000012814D125480068401C2449086020483A
:100A4000FFF74AFC22490968084421490860002050
:100A50001A49086000211A48184A1268815412483D
:100A60000830006840F4F0200F498439C1F88C0048
:100A70004FF4F0000D4988616FF0FC500861C02010
:100A800000F04DF94FF4487000F043F9114800F0C0
:100A9000CFF9C02000F043F94FF4487000F039F965
:100AA000074800F0C5F910BD8480024000C009204D
:100AB0006800001004000010000000105800001032
:100AC00008000010540000106000001064000010C6
:100AD0005C000010400000102DE9F04764480068F9
:100AE000C0F3016003287DD161488430006800F0C4
:100AF000030030B1012830D0022859D003282BD16F
:100B000000E000BF5A480068C0F30740441C0221BF
:100B100057488838D0F88800C0F30E00401CA1FB6D
:100B20000001544B4FF0000CA0FB037901FB039133
:100B300000FB0C11224663463846FFF741FB054691
:100B40004B487C300068C0B2441C22460023284633
:100B5000FFF736FB4849086056E045480068C0F397
:100B60000740441C022142488838D0F88800C0F36E
:100B70000E00401CA1FB0010404A4FF0000CA1FBEE
:100B8000027900FB029001FB0C01224663463846C5
:100B9000FFF716FB054636487C300068C0B2441C9F
:100BA000224600232846FFF70BFB334908602BE061
:100BB0002F480068C0F30740441C02212C488838A5
:100BC000D0F88800C0F30E00401CA1FB00124FF4C7
:100BD00000400023A1FB007902FB009001FB030110
:100BE000224600E011E03846FFF7EAFA05462048C1
:100BF0007C300068C0B2441C224600232846FFF720
:100C0000DFFA1D49086000BF30E0194884300068F1
:100C100000F0030030B1012810D0022819D00328B9
:100C200023D100E000BF12487C300068C0B2401CF5
:100C30001049B1FBF0F01049086016E00C487C3018
:100C40000068C0B2401C0D49B1FBF0F00A490860D1
:100C50000BE007487C300068C0B2401C4FF40041F4
:100C6000B1FBF0F00449086000BF00BFBDE8F087A9
:100C700088C00F4000093D006C000010001BB70049
:100C80002020184908601848D0F8A00100F0200082
:100C900030B100BF1348006800F040000028F9D0D0
:100CA000032010499C39086001200F49C1F8A801B0
:100CB0000C490C3108600B49943908600020091F69
:100CC00008600A480849C431086040F2011006492A
:100CD000C1F8C8010846006820F4704040F4804024
:100CE00008607047A0C10F4000C00F40DE87280495
:100CF0004FF0FC500149C8617047000000C0092056
:100D000000B5012000F00BF842F2107000F001F87D
:100D100000BD002100E0491C8142FCD3704730B582
:100D2000044604F0F000C504284600F055F92007F9
:100D30004509284600F050F94FF47A70FFF7E9FFB3
:100D400030BD30B5044604F0F000C504284600F07C
:100D500059F920074509284600F054F94FF47A70F4
:100D6000FFF7D7FF30BD000000B52E4840682E4980
:100D700008402C4948602D48006840F080502B49BD
:100D800008600846006840F0006008600846006897
:100D900040F0F0600860FFF7ABFF4FF44860FFF7EA
:100DA000B8FF3020FFF7BBFF40F6B830FFF7B1FFC8
:100DB0003020FFF7B4FF47F23050FFF7AAFF302092
:100DC000FFF7ADFF47F23050FFF7A3FF2020FFF7FA
:100DD000A6FF47F23050FFF79CFF2820FFF79FFF48
:100DE00047F23050FFF795FF0C20FFF798FF4FF4C4
:100DF0004870FFF78EFF0620FFF791FF4FF4487011
:100E0000FFF787FF0120FFF78AFF42F21070FFF71C
:100E100080FF8020FFF783FF4FF44870FFF779FFD2
:100E200000BD000000C00240FF3F00FC00C00920E0
:100E300030B50546002408E0285DFFF782FF641CFA
:100E4000102C02D1C020FFF76AFF285D0028F3D1E3
:100E500030BD0000FFF714FFFFF73EFE00205049B1
:100E6000086050494E4A126888544F48006820F084
:100E700040404D490860084640686FF30D004860E7
:100E80004A48006840F4F000484908600846006895
:100E900020F4F02008604648006840F4F0204449FF
:100EA0009039C1F890006FF0FC5040490861FFF79D
:100EB0005BFF4FF44860FFF72CFF6FF4FF003B49E6
:100EC00008614FF4F000886115200121814042093A
:100ED000920002F1E022C2F8001100BF5FE0354845
:100EE0000068A8B96FF0FC5030490861FFF708FFAF
:100EF0008020FFF714FF4FF44870FFF70AFF2E48D9
:100F0000FFF796FF00BF2B4800680028FBD046E0A3
:100F10002848006801281CD16FF0FC502349086163
:100F2000FFF7EEFE8020FFF7FAFE4FF44870FFF760
:100F3000F0FE2248FFF77CFF00BF214800682149EE
:100F400009688842F9D31B480068401C19490860A9
:100F500025E018480068022821D16FF0FC501349A1
:100F60000861FFF7CDFE8020FFF7D9FE4FF44870EF
:100F7000FFF7CFFE1448FFF75BFF144814A1026887
:100F80001448FFF795F9C020FFF7C9FE4FF44870E9
:100F9000FFF7BFFE0F48FFF74BFF00BFFEE79EE7DE
:100FA000580000100800001000C0024000C00920D6
:100FB0009080024054000010140000102400001023
:100FC0006400001060000010330000105C0000108E
:100FD000256400000C00001000B50346FFF788FEF2
:100FE000074843614FF000600549C86140008861CF
:100FF0001920FFF78EFE4FF080500149C86100BDF7
:1010000000C0092000B50346FFF772FE07484361A0
:101010004FF0006005498861400088611920FFF7A2
:1010200078FE4FF080500149C86100BD00C0092022
:1010300010B500290AD00878002807D00548784460
:10104000FFF71EFB002801D0002010BD02487844A5
:1010500010BD00003E000000360000008C110000B2
:10106000000000107000000008010000FC110000EA
:101070007000001060020000240100001001000058
:1010800043000000F8FFFFFF004040404040404068
:10109000404041414141414040404040404040404B
:1010A00040404040404040404005020202020202EF
:1010B000020202020202020202202020202020203E
:1010C0002020200202020202020290909090909052
:1010D0001010101010101010101010101010101010
:1010E0001010101002020202020288888888888884
:1010F0000808080808080808080808080808080870
:101100000808080802020202400000000000000077
:1011100000000000000000000000000000000000CF
:1011200000000000000000000000000000000000BF
:1011300000000000000000000000000000000000AF
:10114000000000000000000000000000000000009F
:10115000000000000000000000000000000000008F
:10116000000000000000000000000000000000007F
:10117000000000000000000000000000000000006F
:10118000000000000000000000000000000000005F
:10119000000000000000000000000000000000004F
:1011A0004E756D626572206F66206E6F732E3F0004
:1011B000456E746572206E756D626572733A004299
:1011C00043442073756D2069733A2000202020204D
:1011D000202020202020202020202020000000008F
:1011E00000000000000000000000000000000000FF
:0C11F0000000000000000000C0C62D0040
:040000050000018571
:00000001FF
