:020000040000FA
:100000006802001069010000710100007301000026
:100010007501000077010000790100000000000078
:100020000000000000000000000000007B01000054
:100030007D010000000000007F0100008101000040
:1000400083010000830100008301000083010000A0
:100050008301000083010000830100008301000090
:100060008301000083010000830100008301000080
:100070008301000083010000830100008301000070
:100080008301000083010000830100008301000060
:100090008301000083010000830100008301000050
:1000A0008301000083010000830100008301000040
:1000B0008301000083010000830100008301000030
:1000C00083010000830100008301000000F002F8BA
:1000D00000F03AF80AA090E8000C82448344AAF1A8
:1000E0000107DA4501D100F02FF8AFF2090EBAE8A6
:1000F0000F0013F0010F18BFFB1A43F0010318475C
:100100000C0500002C050000103A24BF78C878C107
:10011000FAD8520724BF30C830C144BF04680C600D
:10012000704700000023002400250026103A28BF55
:1001300078C1FBD8520728BF30C148BF0B60704759
:100140001FB51FBD10B510BD00F0A6F81146FFF792
:10015000F7FF00F0FDF900F0C4F803B4FFF7F2FF79
:1001600003BC00F0CDF8000009488047094800476B
:10017000FEE7FEE7FEE7FEE7FEE7FEE7FEE7FEE757
:10018000FEE7FEE704480549034A054B70470000B7
:10019000B9040000CD0000006800001068020010E3
:1001A0006800001053EA020C00F069802DE9F04B62
:1001B0004FF00006002B1FBFB3FA83F503FA05F4D6
:1001C00024FA05F65E4012BF1643B2FA82F502FA2F
:1001D00005F4C5F120051EBF22FA05FC44EA0C0413
:1001E000203556EA044C4FEA144418BF641C4FF003
:1001F00000084FF00009904271EB030C39D300293D
:1002000019BFB1FA81F701FA07F6B0FA80F700FAE0
:1002100007F6C7F120071EBF20FA07FC46EA0C06C6
:100220002037B6FBF4FCA7EB0507103F07F01F0BC8
:10023000CBF120060CFA0BFB2CFA06F644BFB346B2
:100240000026202FA4BF5E464FF0000B5BEA060C91
:1002500008BF4FF0010B19EB0B09ABFB027C48EB1D
:100260000608C01B06FB02CC0BFB03CC71EB0C0198
:10027000C1E70B46024641464846BDE8F08B13B540
:100280004FF000004FF00001AFF30080BDE81C40CC
:100290007047704770477047754600F02BF8AE46C0
:1002A00005006946534620F00700854618B020B582
:1002B000FFF768FFBDE820404FF000064FF0000751
:1002C0004FF000084FF0000B21F00701AC46ACE8FE
:1002D000C009ACE8C009ACE8C009ACE8C0098D466B
:1002E000704710B50446AFF300802046BDE81040CB
:1002F000FFF733BF0048704708000010FFFFFFFF03
:1003000001491820ABBEFEE726000200704700003E
:100310002DE9F04764480068C0F3016003287DD1EF
:1003200061488430006800F0030030B1012830D00B
:10033000022859D003282BD100E000BF5A4800689A
:10034000C0F30740441C022157488838D0F8880081
:10035000C0F30E00401CA1FB0001544B4FF0000CF9
:10036000A0FB037901FB039100FB0C1122466346BD
:100370003846FFF717FF05464B487C300068C0B28F
:10038000441C224600232846FFF70CFF484908601A
:1003900056E045480068C0F30740441C022142482B
:1003A0008838D0F88800C0F30E00401CA1FB001074
:1003B000404A4FF0000CA1FB027900FB029001FBC8
:1003C0000C01224663463846FFF7ECFE05463648E8
:1003D0007C300068C0B2441C224600232846FFF748
:1003E000E1FE334908602BE02F480068C0F3074066
:1003F000441C02212C488838D0F88800C0F30E0035
:10040000401CA1FB00124FF400400023A1FB007927
:1004100002FB009001FB0301224600E011E0384698
:10042000FFF7C0FE054620487C300068C0B2441C7F
:10043000224600232846FFF7B5FE1D49086000BF8D
:1004400030E019488430006800F0030030B1012822
:1004500010D0022819D0032823D100E000BF124891
:100460007C300068C0B2401C1049B1FBF0F010496C
:10047000086016E00C487C300068C0B2401C0D4992
:10048000B1FBF0F00A4908600BE007487C300068D7
:10049000C0B2401C4FF40041B1FBF0F004490860C9
:1004A00000BF00BFBDE8F08788C00F4000093D00D5
:1004B00000000010001BB7002020184908601848F1
:1004C000D0F8A00100F0200030B100BF1348006850
:1004D00000F040000028F9D0032010499C39086042
:1004E00001200F49C1F8A8010C490C3108600B49E3
:1004F000943908600020091F08600A480849C4317F
:10050000086040F201100649C1F8C80108460068B9
:1005100020F4704040F4804008607047A0C10F4054
:1005200000C00F40DE8728040220074948600748C2
:10053000C06840F030000549C860022002490867E1
:1005400001204860704700000080004000C0024069
:10055000FFF7B2FFFFF7DCFE1848006818490840B3
:10056000164908601748006840F47F601549086024
:10057000FFF7DAFF20E014488068144908704FF450
:100580007A7000F029F81048806811490870084610
:1005900000780E490978401A0E490978884206DD2C
:1005A0000B48007809490978401A0A490870094837
:1005B0000078000103494861DDE7000000C0024007
:1005C000FF0000FF00C00920008000400400001070
:1005D000050000100600001002214FF0402251607B
:1005E0000021116791622021D1630021D160411E59
:1005F0009161042151610121516000BF4FF0402100
:10060000C96B01F001010029F8D070472C060000E9
:10061000000000100800000008010000340600007F
:10062000080000106002000024010000C0C62D0078
:0406300000000001C5
:04000005000001698D
:00000001FF
