:020000040000FA
:100000006802001081010000890100008B010000DE
:100010008D0100008F010000910100000000000030
:10002000000000000000000000000000930100003C
:1000300095010000000000009701000099010000F8
:100040009B0100009B0100009B0100009B01000040
:100050009B0100009B0100009B0100009B01000030
:100060009B0100009B0100009B0100009B01000020
:100070009B0100009B0100009B0100009B01000010
:100080009B0100009B0100009B0100009B01000000
:100090009B0100009B0100009B0100009B010000F0
:1000A0009B0100009B0100009B0100009B010000E0
:1000B0009B0100009B0100009B0100009B010000D0
:1000C0009B0100009B0100009B01000000F002F872
:1000D00000F047F80AA090E8000C82448344AAF19B
:1000E0000107DA4501D100F03CF8AFF2090EBAE899
:1000F0000F0013F0010F18BFFB1A43F0010318475C
:100100007419000094190000103A24BF78C878C10F
:10011000FAD8520724BF30C830C144BF04680C600D
:10012000704700000023002400250026103A28BF55
:1001300078C1FBD8520728BF30C148BF0B60704759
:10014000662900F0D880002070471FB500F0CAF87B
:1001500004000020002101F059FAE0601FBD10B535
:1001600010BD00F095FC1146FFF7EFFF01F0E8F934
:1001700000F0B3FC03B4FFF7F2FF03BC00F0F6FCA1
:100180000948804709480047FEE7FEE7FEE7FEE72B
:10019000FEE7FEE7FEE7FEE7FEE7FEE70448054967
:1001A000034A054B7047000099140000CD00000081
:1001B00068000010680200106800001053EA020C8A
:1001C00000F069802DE9F04B4FF00006002B1FBFB7
:1001D000B3FA83F503FA05F424FA05F65E4012BF7C
:1001E0001643B2FA82F502FA05F4C5F120051EBFE6
:1001F00022FA05FC44EA0C04203556EA044C4FEA86
:10020000144418BF641C4FF000084FF000099042DE
:1002100071EB030C39D3002919BFB1FA81F701FA48
:1002200007F6B0FA80F700FA07F6C7F120071EBFFD
:1002300020FA07FC46EA0C062037B6FBF4FCA7EBD5
:100240000507103F07F01F0BCBF120060CFA0BFB44
:100250002CFA06F644BFB3460026202FA4BF5E4604
:100260004FF0000B5BEA060C08BF4FF0010B19EBD7
:100270000B09ABFB027C48EB0608C01B06FB02CC5B
:100280000BFB03CC71EB0C01C1E70B460246414668
:100290004846BDE8F08B13B54FF000004FF0000169
:1002A000AFF30080BDE81C40704700000FB41CB5E0
:1002B000074B06AA7B4469460090059800F0E1FAD6
:1002C0000020694600F009F81CBC5DF814FB000032
:1002D000230000007047704770470A6802F8010B5E
:1002E0000A607047004870472400001000487047BB
:1002F00004000010704700F088B90000FFFFFFFF06
:1003000070B5044685690068C10601D5302600E055
:100310002026C00707D070BDD4E9012130469047A0
:10032000206A401C20626D1EF6D570BD70B5044673
:1003300085690078C00707D170BDD4E9012120206C
:100340009047206A401C20626D1EF6D570BD2DE9D5
:10035000F0474FF0000A89460446C0F820A0204626
:10036000E1688847002876D0252806D0D4E9012105
:100370009047206A401C2062F1E7E1682046002592
:100380008847C4F81CA006460027C4F818A02A2EE7
:1003900009D0304601F0CCF838B304EB8708303E82
:1003A000C8F8186019E059F8041B204604EB8702CE
:1003B0009161E1688847012F064618D1E06900285D
:1003C00020DA25F020051DE0D8F8180000EB8000A9
:1003D00006EB40003038C8F818002046E16888472E
:1003E000064601F0A5F80028EED1012F0AD02E2EE6
:1003F00008D12046E16888477F1C0646022F45F059
:100400002005C4DBA069002803DA404245F001055D
:10041000A061E80701D025F01005B6B1A6F14100B2
:10042000192802D8203645F400654A463146204650
:1004300025604D46FFF784FE58B1012806D0ED1D1A
:1004400025F0070000F1080989E704E005F1040937
:1004500085E730468AE7206ABDE8F08770472DE9D6
:10046000FF4F0C461E464FF0FF378BB0D2E900011C
:10047000DDF860800A908A46C1F30A5505B93D4609
:10048000002108464FF00000BAF1000F00F44000D0
:1004900005DA00EB80004FF4400101EA50004FEA1A
:1004A0009059B9F1010F00DDB9460A9850EA4A00A7
:1004B0000ED044F61050A5F2FF3545432F14B8F185
:1004C000000F1ED07542291E1EDDC9F100021CE07E
:1004D000B8F1010F4FF0000001D0302103E0F243EA
:1004E00005E02154401CB042FBDB304600220021D5
:1004F00021540B99C1F80880C1E900200FB0BDE874
:10050000F08FBD1B6D1CDEE74A4600DA694206A883
:1005100000F050FA06AB93E8070003AB83E807004E
:1005200050460A9900F028FB8DE80700A0F500501E
:100530001F3800900398002D09DD42F21F014A4642
:10054000084403A90390684600F087FD08E0A0F581
:1005500000504A461F3803A90390684600F091FDF9
:100560008DE807000004000C03D04FF0FF30410875
:1005700000E01046B8F1000F03D0002200921546AB
:100580001EE0751E05D400F08FF9303262556D1EE5
:10059000F9D5B3460122084302D000227F1C04E0B3
:1005A0002078302801D100227F1E002A099786D0AA
:1005B0001DE0112D07DA00F077F9303262556D1C1D
:1005C00050EA0102F5D1084302D00098C8B10EE00C
:1005D0000021681E05E0235C625C63542254401EC7
:1005E000491C8142F7DBAB46A81B401E0990002046
:1005F00004F80B000B98099AC0F80880C0E9002B9A
:100600007CE711264FF0000859E72DE9F04F8846A6
:100610000446D21D22F0070191B0D1E90001CDE9D5
:100620000A0100F071FF02460B98C00F01D02D2087
:1006300007E02068810701D52B2002E0202101EA94
:10064000C000032A099001D0072A05DB0346414672
:10065000204600F06FF90BE12078800601D5E069B3
:1006600000E00620B8F1650F814606D0B8F1660FAC
:1006700018D0B8F1670F70D131E00020B9F1110F37
:10068000009001DB112301E009F101030AAA01A98D
:100690000CA8FFF7E4FEDDE90C70002609F1010566
:1006A000834647E001204B4600904FF000470AAADE
:1006B00001A90CA8FFF7D3FEDDE90DB00C995D464A
:1006C000002610B909F101000D18B9EB050003D49B
:1006D000C0F1FF3609F10105A5EB09002BE0B9F1E6
:1006E000010F01DA4FF001090020B9F1110F00905C
:1006F000484601DD112300E003460AAA01A90CA81F
:10070000FFF7ADFEDDE90C704D46002683462078EC
:1007100000070AD4AB4500DA5D4601A8012D04DDCF
:10072000411911F8011C302907D04F4502DA17F1A1
:10073000040F04DA012082460FE06D1EEEE7002F61
:1007400002DCED1B3E4403E0781CA84200DD7D1C6A
:10075000B81B00F1010A4FF000472078000703D4CE
:10076000AA4501DB4FF0FF3A0021B7F1004F0DF130
:1007700043088DF8431024D002202B23002F01DAE8
:100780007F422D230A21021EA0F1010000DC5FB18F
:1007900097FBF1FC97FBF1F201FB1C7C17460CF177
:1007A000300C08F801CDEEE7A8F1010003702188B4
:1007B000090501D5452100E06521A0F1010800F8F7
:1007C000011C09980FA9A1EB0807FF1D00B101202A
:1007D000411901EBEA70A1693844081A401EA06172
:1007E0002078C00602D42046FFF78AFD099828B178
:1007F000D4E901219047206A401C20622078C0067D
:1008000022D52046FFF77CFD1EE0002E04DBB34519
:1008100002DD01A8805D00E03020D4E9012190478D
:10082000206A401C2062761CAAF101005FEA000ADF
:100830000AD1FFF757FDC0680168405CD4E9012187
:100840009047206A401C2062281EA5F10105DCDCCF
:1008500007E0D4E9012118F8010B9047206A401CF9
:100860002062381EA7F10107F3DC2046FFF75EFD8A
:10087000032011B043E6000001694A1C02610878B8
:10088000704700B58FB0CDE90131002105910549D0
:100890007944CDE9031011466846FFF758FD0FB0C3
:1008A00000BD0000E5FFFFFF30B5B0F10A024FEADE
:1008B000900E71F100034EEA817EB0EB0E0061EB09
:1008C00091014FEA101E4EEA017E10EB0E0041EB43
:1008D00011114FEA102E4EEA016E10EB0E0041EBA3
:1008E00011214FEA104E4EEA014E10EB0E0041EB83
:1008F0001141401841F100014FEAD00040EA417037
:100900004FEAD10110EB80054FEA810444EA90746C
:1009100044EB01046D1944EB0404521BA3414FF056
:10092000000348BF0A3200D530BD401C41F1000130
:1009300030BD00002DE9F0411F4604460326016842
:10094000072A01F4006004DB08B116A505E016A52E
:1009500003E008B115A500E015A521F01000206006
:10096000A069C01EA0610FB1401EA0612046FFF724
:10097000C7FC4FB1D4E9012138469047206A401C9A
:100980002062C01C206206E0206AFAE7D4E9012157
:1009900015F8010B9047761EF8D22046FFF7C6FCEB
:1009A000BDE8F0814E414E006E616E00494E46003A
:1009B000696E66002DE9F047814616468AB03348D5
:1009C00078440DC88DE80D0030487844801C03AC95
:1009D0000DC884E80D0041F69B300844372190FB98
:1009E000F1F290FBF1F5A5F1800501FB12041B3C2F
:1009F00002D56442012000E00020DFF890A080468C
:100A00000027FA44AAF1BE0A0DE0E00709D03246F9
:100A1000684607EB47010AEB810100F032FB8DE8E5
:100A2000070064107F1C002CEFD1184F7F44AC3FAF
:100A300018E0E80714D007EB04100DF1180A90E84D
:100A40000E008AE80E00C068F04201D198190890A3
:100A5000324606A903A800F014FB03AB83E80700A5
:100A60006D10641C002DE4D132466946B8F1000FC8
:100A700003A802D000F0F1FA01E000F002FBC9E99E
:100A80000001C9F808200AB0BDE8F08798100000FE
:100A90007546FFF72BFCAE4605006946534620F02D
:100AA0000700854618B020B5FFF778FBBDE8204069
:100AB0004FF000064FF000074FF000084FF0000B1A
:100AC00021F00701AC46ACE8C009ACE8C009ACE8CD
:100AD000C009ACE8C0098D46704710B50446AFF3B5
:100AE00000802046BDE81040FFF744BB4FF0013CBA
:100AF00050F8042B51F8043B9A4221D1A2EB0C038D
:100B0000934313EACC1317D150F8042B51F8043B4C
:100B10009A4215D1A2EB0C03934313EACC130BD1E9
:100B200050F8042B51F8043B9A4209D1A2EB0C0374
:100B3000934313EACC13DBD04FF00000704700BFA3
:100B4000D01A01BAB1FA81F101F0180122FA01F0CC
:100B5000CB40C1F12001DBB2C0B2C01A2CFA01F3C4
:100B6000D11A914311EAC311E6D170470149182007
:100B7000ABBEFEE7260002005FEA400C08BF91F022
:100B8000000F4FEA8C234FEAC12243EA51514FEA4A
:100B90001C5018BF00F5F0404FEA300018BF41F07C
:100BA00000415FEA6C5C00F02980BCF1FF3F08BFA8
:100BB00040F080407047130C06BF12044FF0100C39
:100BC0004FF0000C130E04BF12020CF1080C130FAF
:100BD00004BF12010CF1040C930F04BF92000CF13E
:100BE000020CD30F04BF52000CF1010C11464FF060
:100BF0000002A0F11F00A0EB0C00704711F0004FA5
:100C000008BF704731F000413FF4D5AF0B0C06BF71
:100C100009044FF0100C4FF0000C0B0E04BF09023A
:100C20000CF1080C0B0F04BF09010CF1040C8B0F25
:100C300004BF89000CF1020CCB0F04BF49000CF17A
:100C4000010CCCF12003A0EB0C0022FA03F302FA12
:100C50000CF241EA030100F10100704720F07F4CE3
:100C600080EA030023F07F47ACEB070303F57C53D6
:100C700000F0004003F1FF032DE980494FEA154BD6
:100C800009B44FEA144325EA0B4E24EA03480FF255
:100C9000042606EB132749083E785FEA320203FB7D
:100CA0000667C7F5000707FB06F64FEA54374FEA19
:100CB000D64606F1020607FB066CCCF1005C4FEA53
:100CC0001C472CEA074C07FB06F40CFB06F504EB6B
:100CD00015464FEA961634BF00204FF000404FEA09
:100CE000D13706FB07FC4FEA1C4C0CFB0BF7D21B61
:100CF00003FB0CF761EB07010CFB0EF7B0EB0740B1
:100D000072EB17420CFB08F734BFA2EB0742B2EBC1
:100D1000074261EB17414FEA0C444FEA910706FB8B
:100D200007FC4FEA1C4C0CFB0BF7B0EBC74072EB17
:100D3000573203FB0CF734BFA2EBC742B2EBC742FA
:100D400061EB57310CFB0EF7B0EBC70072EB57723B
:100D50000CFB08F734BFA2EBC702B2EBC70261EB92
:100D60005771039F4FEA816141EA921104EBCC0471
:100D70004FEAD1374FEA826206FB07FC42EA901243
:100D80004FEA80604FEA1C4C0CFB0BF7D21B03FBB5
:100D90000CF761EB07010CFB0EF7B0EB074072EBB1
:100DA00017420CFB08F734BFA2EB0742B2EB074235
:100DB00061EB17414FEA8C554FEA910704EB9C24F5
:100DC00006FB07FC4FEA1C4C0CFB0BF7B0EBC740D3
:100DD00072EB573203FB0CF734BFA2EBC742B2EB06
:100DE000C74261EB57310CFB0EF7B0EBC70072EB5B
:100DF00057720CFB08F734BFA2EBC702B2EBC70275
:100E000061EB577115EB4C254FEA816141EA921174
:100E10004FEA82624FEAD13742EA901206FB07FCA2
:100E200044F100044FEA80604FEA1C4C0CFB0BF7C6
:100E3000D21B03FB0CF761EB07010CFB0EF7B0EBC9
:100E4000074072EB17420CFB08F734BFA2EB0742D6
:100E5000B2EB074261EB174115EB1C154FEA8131EC
:100E600041EA92414FEA823242EA90424FEA8030B0
:100E70004FEA0C7644F1000448EA03434EEA0B487B
:100E80004FF0000EB2EB080C71EB030724BF624673
:100E900039464EEB0E0E4FF0000B001852414941FF
:100EA0004BEB0B0BB2EB080C71EB03077BF1000B68
:100EB00024BF624639464EEB0E0E4FF0000B001871
:100EC000524149414BEB0B0BB2EB080C71EB0307A2
:100ED0007BF1000B24BF624639464EEB0E0E51EA01
:100EE000020718BF46F0010616EB0E7655F1000218
:100EF00054F1000103D5BDE88901BDE80088BDE8D3
:100F00008901BDE80048B619524141EB0101A3F146
:100F10000103704780807F7E7D7C7B7A797877764D
:100F200076757473727171706F6E6E6D6C6C6B6AC6
:100F30006A69686867666665646463636261616064
:100F4000605F5F5E5E5D5D5C5C5B5B5A5A595958E1
:100F5000585757565655555554545353525252514B
:100F6000515050504F4F4F4E4E4D4D4D4C4C4C4BA1
:100F70004B4B4A4A4A4949494848484747474746E8
:100F80004646454545444444444343434342424224
:100F900042414141002B26D4770021D01CB54FEAB5
:100FA000370703B44FF010004FF010014FF000006E
:100FB0000FBCBDE810400BF1010BBBF1010F08BFE6
:100FC0005FEA170722BF12F1010211F101014FF090
:100FD000004143F1000300F0004043EA0000704785
:100FE000F9D35708DAE746EA064613F1400F4FEA0D
:100FF00016461FDD13F1200FDFBF16430A460021FE
:1010000020335B42C8D0C3F1200746EA064602FA05
:1010100007F74FEA164646EA0706C3F1200722FA09
:1010200003F201FA07F721FA03F14FF0000342EA55
:101030000702B1E746EA020646EA06464FEA1646C6
:1010400046EA0106BCBF46EA0646360C4FF00003EE
:101050004FF000024FF000019EE72DE9C048934693
:1010600030B491E8380007C831EA400C48BF34EA90
:10107000430C03D5FFF7F2FDFFF78CFFF0BCBDE892
:1010800000882DE9C048934630B491E8380007C87D
:1010900010F0804F08BF13F0804F03D100F005F827
:1010A000FFF778FFF0BCBDE8008820F07F4780EABA
:1010B000030023F07F4C07EB0C03A3F57C5300F0F7
:1010C0000040A3F1FE0392F0000F00F0B38095F012
:1010D000000F00F077802DE901494FEA11404FEAF7
:1010E000144621EA004800FB06FC24EA064708FBF8
:1010F00006F607FB08F800FB07F718EB06484CEB71
:10110000164C4FEA124B18EB07484FEA15464CEBCA
:10111000174022EA0B4E0BFB06FC25EA06470EFBA6
:1011200006F607FB0EFE0BFB07F71EEB064E4CEB1D
:10113000164C4FF000061EEB074E4CEB174B18EB0E
:101140000B0840F1000018EB0E0B58EB000840F1C3
:1011500000008F1A4FF000013CBFC943661B14BF4B
:10116000B5EB040C00213CBFC943F61B4FEA174402
:101170004EEA8E0E27EA04454FEA1C4704FB07623D
:101180002CEA074C05FB07F70CFB05F604FB0CFCEF
:1011900016EB074642EB174216EB0C4642EB1C429D
:1011A0001BEB060658EB0202414146EA9E0601D5BA
:1011B000BDE80189B619524141EB0101A3F10103D8
:1011C000BDE801894FEA14454FEA114724EA054674
:1011D00021EA074C05FB07F406FB07F70CFB06F1B9
:1011E00005FB0CFC11EB074144EB17444FEA124797
:1011F00011EB0C4144EB1C4422EA074C05FB07F2BF
:1012000006FB07F70CFB06F605FB0CFC16EB074686
:1012100042EB174216EB0C4642EB1C456A1854F1A0
:10122000000148BF7047B619524141EB0101A3F1DB
:101230000103704795F0000F37D04FEA11424FEA93
:10124000144721EA024624EA074C02FB07F106FB99
:1012500007F70CFB06F402FB0CFC14EB074441EB14
:1012600017414FEA154714EB0C4441EB1C4125EAAA
:10127000074C02FB07F506FB07F70CFB06F602FB23
:101280000CFC16EB074645EB174516EB0C4645EBF9
:101290001C42121951F1000148BF7047B619524162
:1012A00041EB0101A3F1010370474FEA14454FEAF6
:1012B000114724EA054621EA074C05FB07F106FB26
:1012C00007F70CFB06F24FF0000605FB0CFC12EBD7
:1012D000074241EB174112EB0C4251EB1C4148BF56
:1012E0007047921841EB0101A3F101037047000020
:1012F0002DE9F04764480068C0F3016003287DD100
:1013000061488430006800F0030030B1012830D01B
:10131000022859D003282BD100E000BF5A480068AA
:10132000C0F30740441C022157488838D0F8880091
:10133000C0F30E00401CA1FB0001544B4FF0000C09
:10134000A0FB037901FB039100FB0C1122466346CD
:101350003846FEF733FF05464B487C300068C0B284
:10136000441C224600232846FEF728FF484908600F
:1013700056E045480068C0F30740441C022142483B
:101380008838D0F88800C0F30E00401CA1FB001084
:10139000404A4FF0000CA1FB027900FB029001FBD8
:1013A0000C01224663463846FEF708FF05463648DC
:1013B0007C300068C0B2441C224600232846FEF759
:1013C000FDFE334908602BE02F480068C0F307405A
:1013D000441C02212C488838D0F88800C0F30E0045
:1013E000401CA1FB00124FF400400023A1FB007938
:1013F00002FB009001FB0301224600E011E03846A9
:10140000FEF7DCFE054620487C300068C0B2441C74
:10141000224600232846FEF7D1FE1D49086000BF82
:1014200030E019488430006800F0030030B1012832
:1014300010D0022819D0032823D100E000BF1248A1
:101440007C300068C0B2401C1049B1FBF0F010497C
:10145000086016E00C487C300068C0B2401C0D49A2
:10146000B1FBF0F00A4908600BE007487C300068E7
:10147000C0B2401C4FF40041B1FBF0F004490860D9
:1014800000BF00BFBDE8F08788C00F4000093D00E5
:1014900000000010001BB700202018490860184801
:1014A000D0F8A00100F0200030B100BF1348006860
:1014B00000F040000028F9D0032010499C39086052
:1014C00001200F49C1F8A8010C490C3108600B49F3
:1014D000943908600020091F08600A480849C4318F
:1014E000086040F201100649C1F8C80108460068CA
:1014F00020F4704040F4804008607047A0C10F4065
:1015000000C00F40DE872804490050EAC12018BF00
:1015100004204A0D18BF40F0010040F2FF72B2EB08
:10152000515F08BF40F00200012808BF0520704746
:1015300030380A2801D2012070470020704700008F
:101540008AB023A207CA05AB07C324A1D1E90023AF
:10155000D1E90201CDE90123CDE90301FFF79CFFA9
:10156000FFF7C6FE2148C06840F040401F49C860F0
:101570001F48006840F480501D49C439C1F8C400B8
:1015800024E01C481C49086000BF1B484068044612
:10159000B0F1004FF9D0184844682409C4F30B0493
:1015A000204600F03DF90746144900F04DF9064683
:1015B000134900F073F80546284600F043F8064644
:1015C00032460B460FA108A8FEF770FED9E70000CF
:1015D000414E414C4F472049503A2000414443205E
:1015E0004F55545055543A200000000000C00240AE
:1015F000C4C00F402000200100400340333353405B
:1016000000F07F4525332E326600000010B500291A
:101610000AD00878002807D005487844FFF766FA12
:10162000002801D0002010BD0248784410BD000001
:101630007A040000720400000808A0F500114FEAC7
:101640003101704743004FEAD30C4FEA3C0C434052
:101650001FBF40070CF1605113F0FE4F70471CF0A4
:10166000006F03D100200CF0004170470CF00043E4
:1016700043EA507010B540EACC0000F066F900BFB4
:10168000000000924FEA0001FFF7D6BF4FF0004183
:101690004FF00000A1F50021704700004FF47F0CCF
:1016A0001CEAD0121EBF1CEAD11392EA0C0F93EA77
:1016B0000C0F00F0858090EA010F48BF42F4807261
:1016C00040F4000C41F400002CF07F4120F07F40FA
:1016D00000B58142A2EB03020FF2081CACEB504EA6
:1016E000C0F100009EF800E04FEA4E0E00FB0EFC39
:1016F00038BF49004FEA2C1C02F5FA020CFB0EF32E
:101700004FEACE1E4FEA112C4FEAC1210EEB635E69
:1017100042EB22420EFB0CFC4FEA1C5300FB031170
:101720004FEA112C4FEA01310EFB0CFC4FEADC4C66
:1017300000FB0C11C14228BF09184CEB03335DF8C4
:1017400004EB10EB410143EBC250B2F57C0F38BF04
:10175000704729D512F0F00F1CBF00F1C04000F017
:1017600000407047008182838485868788898B8CBE
:101770008D8E8F919293959697999A9C9D9FA0A2FA
:10178000A3A5A7A8AAACAEB0B2B3B5B7B9BCBEC04A
:10179000C2C5C7C9CCCED1D4D7D9DCDFE2E6E9ECEB
:1017A000F0F3F7FAFE0000004FEA400C0CF1807CE9
:1017B000BCF17E4F28BF7047B0F1C04000F00BB9BC
:1017C00090EA010F0CEAD11348BF42F480726245DF
:1017D00038BF634507D213F47F0F16D080EA0100AB
:1017E00000F00040704710B500F0AFF8097EFC3EF5
:1017F00000F005B880EA010000F00040704780EA80
:10180000010000F0004000F0E6B812F47F0F04BFC2
:101810000248704780EA010000F0DDB80000C07F98
:10182000B0FA80F310FA03F2C3F19D030AD0D90590
:1018300001EB1220530638BF704700F1010008BFCA
:1018400020F00100704700004FF47F0C1CEAD0121A
:101850001EBF1CEAD11392EA0C0F93EA0C0F00F0A2
:10186000478090EA010F48BF42F480724FF0004C6D
:101870004CEA00204CEA012102EB0302A0FB011319
:10188000A2F50002002918BF43F001035B0028BF46
:101890004FEA330342EB22425FEA132C4CEBC25077
:1018A0002EBFBCEB436FB2F57C0F70474FEA036C61
:1018B000BCF1004F08BF20F00100B2F57C0F38BF2B
:1018C00070470BD582F0FF0212F5803FC8BF70470A
:1018D00000F1C040D8BF00F00040704700F5000C98
:1018E0005FEA4C0C48BF7047B0F1C04000F073B8DD
:1018F00090EA010F0CEAD11348BF42F480726245AE
:1019000038BF634504D280EA010000F00040704710
:1019100010B500F01AF800BF8900013E00F007B8CA
:1019200000F009B85FEA410C5FEA1C6C08D080EA5D
:10193000010000F050B85FEA400C5FEA1C6CF6D181
:101940004FF00040A0F5800070470EF1020E2EF01F
:10195000030E5EF8044B244204D44FEA4102B2F174
:101960007F4F11D84FEA4003B3F17F4F0CD80ED10F
:101970004FEAD07CB2F17F4F0CEB4C0C0CF1020C17
:1019800008BF4CEBD17C04E04FF0080C01E04FEABB
:10199000D17C0CEB4C0324FA03F404F00704B4F1FB
:1019A000040C06D20EEB840CBDE810404CF0010C88
:1019B0006047DFE80CF0070802024FF00040A0F596
:1019C000800010BD0846420018BFD2F1807288BF67
:1019D00000F0004010BDFF2141EAD050C005704723
:1019E00002400000000000A00000000005400000D0
:1019F000000000C8000000000C4000000000409CF7
:101A000000000000194000000020BCBE00000000E3
:101A100034400000BFC91B8E00000004B540000028
:101A2000504BCFD06607E2CF010000006C410000B0
:101A30003E8251AADFEEA73401000000D942000027
:101A4000DCB5A0E23A301F97FFFFFFFFB44500006E
:101A5000FD25A0C8E9A3C14FFFFFFFFFFF3F000026
:101A60000000008000000000FF3F00000000008038
:101A700000000000B01A0000000000100400000088
:101A800008010000B41A0000040000106402000005
:101A9000240100001C00000043000000F8FFFFFFCD
:101AA0000C0000000E0000000F0000002E000000DF
:041AB000C0C62D007F
:040000050000018175
:00000001FF
