:020000040000FA
:1000000090020010690100007101000073010000FE
:100010007501000077010000790100000000000078
:100020000000000000000000000000007B01000054
:100030007D010000000000007F0100008101000040
:1000400083010000830100008301000083010000A0
:100050008301000083010000830100008301000090
:100060008301000083010000830100008301000080
:100070008301000083010000830100008301000070
:100080008301000083010000830100008301000060
:100090008301000083010000830100008301000050
:1000A0008301000083010000830100008301000040
:1000B0008301000083010000830100008301000030
:1000C00083010000830100008301000000F002F8BA
:1000D00000F03AF80AA090E8000C82448344AAF1A8
:1000E0000107DA4501D100F02FF8AFF2090EBAE8A6
:1000F0000F0013F0010F18BFFB1A43F0010318475C
:10010000B4050000D4050000103A24BF78C878C1B7
:10011000FAD8520724BF30C830C144BF04680C600D
:10012000704700000023002400250026103A28BF55
:1001300078C1FBD8520728BF30C148BF0B60704759
:100140001FB51FBD10B510BD00F0A6F81146FFF792
:10015000F7FF00F013FA00F0C4F803B4FFF7F2FF62
:1001600003BC00F0A1FA0000094880470948004795
:10017000FEE7FEE7FEE7FEE7FEE7FEE7FEE7FEE757
:10018000FEE7FEE704480549034A054B70470000B7
:10019000A9040000CD0000009000001090020010A3
:1001A0009000001053EA020C00F069802DE9F04B3A
:1001B0004FF00006002B1FBFB3FA83F503FA05F4D6
:1001C00024FA05F65E4012BF1643B2FA82F502FA2F
:1001D00005F4C5F120051EBF22FA05FC44EA0C0413
:1001E000203556EA044C4FEA144418BF641C4FF003
:1001F00000084FF00009904271EB030C39D300293D
:1002000019BFB1FA81F701FA07F6B0FA80F700FAE0
:1002100007F6C7F120071EBF20FA07FC46EA0C06C6
:100220002037B6FBF4FCA7EB0507103F07F01F0BC8
:10023000CBF120060CFA0BFB2CFA06F644BFB346B2
:100240000026202FA4BF5E464FF0000B5BEA060C91
:1002500008BF4FF0010B19EB0B09ABFB027C48EB1D
:100260000608C01B06FB02CC0BFB03CC71EB0C0198
:10027000C1E70B46024641464846BDE8F08B13B540
:100280004FF000004FF00001AFF30080BDE81C40CC
:100290007047704770477047754600F029F8AE46C2
:1002A00005006946534620F00700854618B020B582
:1002B000FFF768FFBDE820404FF000064FF0000751
:1002C0004FF000084FF0000B21F00701AC46ACE8FE
:1002D000C009ACE8C009ACE8C009ACE8C0098D466B
:1002E00070470446AFF300802046FFF736FF00005A
:1002F000004870473000001070470000FFFFFFFF0C
:100300002DE9F04780480068C0F3016003287CD1E4
:100310007E48006810F0030006D0012833D0022880
:100320005FD003282ED100E000BF77480068C0F3FB
:10033000074000F101044FF002017548D0F8880031
:10034000C0F30E0000F10100A1FB0001714B4FF062
:10035000000CA0FB037901FB039100FB0C1122466A
:1003600063463846FFF71EFF05466B480068C0B27B
:1003700000F1010422464FF000032846FFF712FF68
:10038000664908605DE060480068C0F3074000F11E
:1003900001044FF002015E48D0F88800C0F30E005F
:1003A00000F10100A1FB00105D4A4FF0000CA1FB21
:1003B000027900FB029001FB0C012246634638469D
:1003C000FFF7F0FE054654480068C0B200F1010492
:1003D00022464FF000032846FFF7E4FE4F4908602D
:1003E0002FE049480068C0F3074000F101044FF0D6
:1003F00002014748D0F88800C0F30E0000F1010068
:10040000A1FB00124FF4004000E01BE04FF000039E
:10041000A1FB007902FB009001FB03012246384654
:10042000FFF7C0FE05463C480068C0B200F1010479
:1004300022464FF000032846FFF7B4FE3749086014
:1004400000BF2FE03148006810F0030006D00128FB
:1004500010D0022819D0032823D100E000BF2E4875
:100460000068C0B200F101002A49B1FBF0F02B494D
:10047000086016E028480068C0B200F10100284971
:10048000B1FBF0F0254908600BE023480068C0B2DA
:1004900000F101004FF40041B1FBF0F01F4908608A
:1004A00000BF00BFBDE8F08720201E490860184843
:1004B000D0F8A00110F0200F05D000BF1948006847
:1004C00010F0400FFAD00320134908604FF00100EC
:1004D0000F49C1F8A801144908600C4908604FF0A1
:1004E0000000A1F10401086010481149086040F2C1
:1004F00001100749C1F8C8010846006820F470409F
:1005000040F480400860704788C00F400CC10F4025
:1005100000C00F4000093D0004C10F400000001062
:10052000001BB700A0C10F40ACC10F40DE872804FC
:10053000C4C00F405349486B00F0F060E8B101219E
:10054000514A1170B0F5000F03D100214F4A1170CC
:1005500013E0B0F1807F03D101214C4A11700CE00F
:10056000B0F1007F03D10221484A117005E0B0F1DB
:10057000806F02D10321454A11707047FFF794FF45
:10058000FFF7BEFE42480068424908404049086003
:100590003C48006840F47F603A4908603C48C068C5
:1005A00020F47F103A49C8600846C06820F07F6098
:1005B000C8603448006C40F4705032490864084602
:1005C000006A20F0F06008623148406820F0FF00C7
:1005D0002F4948602B48006840F4F0202949086002
:1005E0004EE000202C49087046E02B48007820B9E6
:1005F0004FF480602949086017E0274800780128F7
:1006000003D1C002254908600FE023480078022882
:1006100003D1C0022149086007E01F480078032881
:1006200003D14FF400501D4908601C48006815496B
:100630004865002014490870FFF77CFF12480078D5
:10064000012814D16FF47F200E49086114480F4926
:10065000097850F821000B4948616FF47F60086108
:1006600010480D490978405C0001064948610A4874
:100670000078401C08490870074800780428B4DB5B
:10068000AFE7000000C009201A0000101800001099
:1006900000C00240FF0000FF1900001024000010FD
:1006A000040000101400001001491820ABBEFEE742
:1006B00026000200D40600000000001030000000F8
:1006C0000801000004070000300000106002000074
:1006D00024010000C0C62D00FFFFF9FFFF7FF9FFD6
:1006E000FFFFF8FFFF7FF8FF012214080000000061
:1006F00000000000000000000000000000000000FA
:0407000000000000F5
:04000005000001698D
:00000001FF
